:020000040042B8
:100000003AD84020C501420069014200690142001E
:100010006901420069014200690142006901420030
:100020006901420069014200690142006901420020
:100030006901420069014200690142006901420010
:100040006901420069014200690142006901420000
:1000500069014200690142006901420069014200F0
:1000600069014200690142006901420069014200E0
:1000700069014200690142006901420069014200D0
:1000800069014200690142006901420069014200C0
:1000900069014200690142006901420069014200B0
:1000A00069014200690142006901420069014200A0
:1000B0006901420069014200690142006901420090
:1000C0006901420069014200690142006901420080
:1000D0006901420069014200690142006901420070
:1000E0006901420069014200690142006901420060
:1000F0006901420069014200690142006901420050
:10010000690142006901420069014200690142003F
:10011000690142006901420069014200690142002F
:10012000690142006901420069014200690142001F
:10013000690142006901420069014200690142000F
:1001400069014200690142006901420069014200FF
:1001500069014200690142006901420069014200EF
:100160006901420069014200EFF305801EF0040FAF
:1001700002D0EFF309818D466A4602F16802EFF37F
:1001800010831EF0100F0CBF2DED108A90B02DE9DA
:10019000FC4F6946DFF828D000F0A6FCB0E8FC4F21
:1001A0001EF0100F0CBFB0EC108A40301EF0040F90
:1001B0000CBF80F3088880F3098883F310887047A8
:1001C000A012402008B5224A0021224B934231D38D
:1001D000214B224A22498B422FD3224B224A2349C8
:1001E0008B422FD300F058F800F096FC00F0C6F8D0
:1001F000BFF34F8FBFF36F8F4FF0E023D3F8902FF3
:1002000022F00102C3F8902FD3F8942F22F00102BC
:10021000C3F8942FBFF34F8FBFF36F8FF7F0FAF946
:1002200000F0D6FB00F0E6FB00F0F8FB00F0A0FACF
:1002300002F026FA43F8041BC8E752F8040B43F80F
:10024000040BC8E752F8040B43F8040BC8E700BFDF
:100250004CD54020A00A40200000402088075800CC
:10026000A00A4020A00A402028125800A00A4020DE
:1002700082B00023074A0193D2F86836034202D1C4
:10028000019B013301D102B07047019B01330193FF
:10029000F2E700BF00000E4007B52B4B4FF00422E1
:1002A000C3F8002C03F580534FF40042C3F85428E0
:1002B000C3F80429D3F8242812F0800235D022494B
:1002C000D1F82036D80105D4204B0120C1F82036C2
:1002D000FFF7CEFF1E4B4FF48030C1F82036FFF7FA
:1002E000C7FFD1F83036082023F0030343F00103A1
:1002F000C1F83036FFF7BCFF164B0220C1F8283694
:10030000FFF7B6FF00230820C1F8303440F2011394
:10031000C1F83036FFF7ACFF4FF48173C1F83036C7
:1003200003B05DF804EBFFF7A3BF0B49C3F8101847
:100330000192D3F824281206C1D4019A0132BED00A
:10034000019A0132F4E700BF00000E400A3E370078
:100350000A3E3701013F1820080000A5064B202265
:100360004020C3F804260122C3F838264FF4710256
:10037000C3F81C26FFF77CBF00000E4008B58022A2
:10038000224B2348C3F810264FF48072C3F810267E
:100390004FF48052C3F800274FF48042C3F8102670
:1003A0004FF40042C3F8102600F040FA194800F05C
:1003B0003DFA194800F03AFA184800F037FA1848A0
:1003C00000F034FA174800F031FA174800F02EFA1E
:1003D000164800F02BFA164A1648D2F8143143F0AA
:1003E0001003C2F8143100F021FA134800F01EFA8D
:1003F000124BAC221A604FF0FF32DA604FF40C62FD
:100400005A600F4A1A6250221A6008BD00000E405E
:10041000090060000A0060000500A0000600A000BE
:100420007900A0007A00A000150060002400C00040
:10043000008008406F008000700080000080024053
:1004400051000700EFF3108372B611B1426F1269C9
:100450000A60426F0349D16013F0010F00D162B608
:10046000704700BFE7E7083F006EAC220021436FF2
:100470001A60426F536823F00F035360FFF7E2BF27
:1004800038B5046EFFF7F0FF94F88330626F053BD8
:10049000042B28D8DFE803F0340329272B0040235E
:1004A00094F8821001292DD143F4007394F884103C
:1004B00043EA41335360A26F1D4B1001D5009201F6
:1004C0001344B3FBF0F3B3F5002F4FEAD3011ED270
:1004D00003F0070341EA0341636F502200201962D1
:1004E000636F1A6038BDC023DAE78023D8E722F4AF
:1004F000007310498B4214BF4FF40033C023CFE781
:100500000023CDE7022918BF43F40063CEE70A4B6E
:100510002B44DB00B3FBF0F3606FD90803F0070353
:10052000426822F0300242F010024260D2E700BF7F
:10053000008C864700080E40301A1E01036EDA6FE9
:100540000A600022DA675B6F9869C0B27047036E79
:1005500001225B6F09B19A607047DA607047036EE1
:100560005B6F586900F001007047036E5B6FD961E3
:100570007047036E5B6F5869C0F340007047036EAD
:100580005B6F5869C0F340207047036E10B5EFF3FE
:10059000108472B602225B6F39B19A6001F0BCFC24
:1005A00014F0010F00D162B610BDDA60F8E7000068
:1005B000F7B5B1F5817F836814464FF000075E6997
:1005C00038D040F23713994270D040F2011399426B
:1005D00040F08B80356E7AB395F88230D3B1591ED6
:1005E0004B424B415A024FF4807313432046A360A1
:1005F00095F8842043EA8213A360A96F00F0DEFF20
:1006000095F88330053B042B10D8DFE803F009058B
:100610000B0F0F001A46E8E7A36843F01003A3602E
:1006200000243AE0A36843F02003F8E7A36843F00E
:100630003003F4E7356E12B96FF015042DE0104663
:1006400000F0DAFFA36803F03004202C28D003D890
:1006500044B30627002403E0302C25D06FF01504A6
:1006600013F4807204D013F4007F0CBF0222012225
:10067000002CE1D1C3F3801385F8822001A9A8677B
:1006800085F88430284685F88370FFF7DBFE304616
:10069000FFF7F6FE6B6F019A9A60204603B0F0BD3B
:1006A0000727D7E70527DBE70827D3E7356EE4B24E
:1006B0006A6F566826F00F0343F00A0353604FF445
:1006C00080726B6F1A606B6F9C65094CA86FB4FBEE
:1006D000F0F000F0A5FF6B6F5A695204F6D54FF4A5
:1006E00080721A606B6F5E609AE76FF01804D4E74F
:1006F00000127A0010B5046E94F8800000F01EFB22
:10070000002294F880001146BDE8104002F070B855
:1007100038B5056E0246064995F8800002F068F883
:10072000044618B995F8800000F04CFB204638BD0F
:1007300035074200F8B51446176E4FF480767A6F8D
:100740005369FB6715691D4015F0010303D020466E
:1007500001F018FC0123AA0703D5204601F0DCFBB9
:100760000123013E01D0002BE9D10020F8BD00009B
:1007700010B5104C0021206EFFF764FE0E4B0021D7
:10078000186EFFF75FFE0D4B0021186EFFF75AFE43
:100790000B4B0021186EFFF755FE0A4B0021186E17
:1007A000FFF750FE012320462371BDE81040FFF7FC
:1007B00067BE00BFFC004020F0034020F402402050
:1007C000F80140200000402008B50D490D4801F017
:1007D00011FA0B490C4801F00DFA0C490C4801F0D4
:1007E00009FA0C490C4801F005FA0C490C4801F0D3
:1007F00001FA0C490C48BDE8084001F0FBB900BF04
:10080000FC004020A4A05200B1A05200F003402000
:10081000BCA05200F4024020C7A05200F8014020C2
:10082000D2A0520000004020DDA05200C0F34212CE
:10083000534B00F01F0153F82230012230B58A409B
:10084000EFF3108472B64F49C3F8E41000F460016E
:10085000B1F5800F3FD004D8C5035A6418D41A6686
:1008600019E0B1F5200F5AD00FD8B1F5C00F56D00E
:10087000B1F5000F53D06FF01500434AC3F8E420E0
:1008800014F0010F00D162B630BDB1F5400FF1E7B1
:10089000C3F890205A6610F4003515D01A66C3F8D4
:1008A0009420400313D51A62D3F80011D04385B1C8
:1008B0001143C3F80011D3F818110840C3F8180108
:1008C0005A611A600020D8E7C3F89020E9E75A621D
:1008D000EAE70140EDE7C1035A6417D5C3F8902059
:1008E0005A66850314D51A66C3F89420010312D5FD
:1008F0001A65C50411D51A63D3F8181100054CBF49
:1009000011439143C3F818111A61DAE71A66E8E750
:10091000C3F89020EAE75A65EBE75A63ECE7C503B2
:100920005A6423D5C3F890205A66800320D51A66EE
:10093000C3F89420D3F81801B1F5C00F6FEA02058F
:1009400020EA0200C3F81801186F02D0B1F5200F99
:1009500011D12840B1F5C00F1867586F02D0B1F51A
:10096000000F0AD1284058675A60ABE71A66DCE7E7
:10097000C3F89020DEE71043ECE71043F3E700BF35
:100980002C035400004F4950014F4950C0F342120C
:10099000054B00F01F0053F822200123834009B1CA
:1009A00013637047536370472C035400C0F3421223
:1009B000064B00F01F0053F82230DA6B012303FAD4
:1009C00000F01040003818BF012070472C0354007D
:1009D00008B5BFF35F8F4FF082724FF000514FF0B8
:1009E000004000F0F7F8012200211046BDE8084061
:1009F00000F0E4B8BFF34F8FBFF36F8F4FF0E023E9
:100A00000022C3F8502FD3F8142D42F40032C3F85B
:100A1000142DBFF34F8FBFF36F8F70474FF0E0235C
:100A2000F0B5D3F8802D02F00704C2F34E31C2F3C3
:100A3000C9020434B2FA82F505F01F05BFF34F8FE7
:100A4000104601FA04F700FA05F6013846EA0706EF
:100A5000C3F8606FF7D20139F2D2BFF34F8FD3F8EA
:100A60009C2F42F00402C3F89C2FD3F8142D42F4BB
:100A70008032C3F8142DBFF34F8FBFF36F8FF0BDDB
:100A80004FF0E02210B5D2F8843D43F00104C2F8E3
:100A9000844DD2F8804DC2F8843D012304F0070450
:100AA0000434A340BFF34F8F5C1E044204D05C4269
:100AB0002040C2F8700F18444FF0E024C2188A4258
:100AC0000AD9884203D24FF0E023C3F8700FBFF376
:100AD0004F8FBFF36F8F10BDC4F85C0F1046EDE76A
:100AE0007047FFF7CDBF000070B50A4D06460C46B3
:100AF0002B680BB91C462960304600F02BFA296898
:100B0000304601F095FE14B900232C682B60204676
:100B100070BD00BFA41E4020EFF3148343F0040314
:100B200083F314884FF0E023D3F8342F22F04042AF
:100B3000C3F8342FD3F8882D42F47002C3F8882DFF
:100B400070470000024B1878421C1A70704700BFB3
:100B5000A01E40200523012101FA03F2824201D3A5
:100B6000D8B270470133202BF6D1184670470000E9
:100B7000072A1CD901231F2A03FA02F3A2F1030258
:100B800003F1FF3300EA030094BFDB106FF0604312
:100B9000014420EA0300194421EA030120FA02F388
:100BA000D140044A505C044AD35C1843704700208B
:100BB000704700BF490354004003540028B1002986
:100BC00014BF0320012040EA82004FF0E023C3F865
:100BD000940D70472DE9F04780464FF0FF3A1446D8
:100BE000FFF7B0FF08EB010628F01F07054689460E
:100BF000F01BFFF7AFFF0AFA00FA0AEA070A4FF004
:100C0000E027A6EB0A00FFF7A5FF0646C7F8985DA8
:100C100045EA0A05013E024645F01005494644EA08
:100C200046044046C7F89C5DFFF7A2FF44EA002453
:100C300044F00104C7F8A04DBDE8F08708B5EFF314
:100C4000108372B604490320044A00F0A9FCDE2197
:100C5000034800F065FC00BFE8A052009003540078
:100C600009A1520008B5EFF3108372B604490320BE
:100C7000044A00F095FCD621034800F051FC00BF67
:100C800018A152008103540009A1520008B5EFF3E6
:100C9000108372B604490320044A00F081FCCE217F
:100CA000034800F03DFC00BF3DA152007603540014
:100CB00009A1520008B5EFF3108372B64FF0E0239C
:100CC00005490320054AD3F8283D00F069FCC621F8
:100CD000034800F025FC00BF5BA1520067035400ED
:100CE00009A1520008B5EFF3108372B64FF0E0236C
:100CF00005490320054AD3F8283D00F051FCBE21E8
:100D0000034800F00DFC00BF84A152005A035400B8
:100D100009A1520008B5EFF3108372B6044903200D
:100D2000044A00F03DFCB621034800F0F9FB00BF87
:100D3000ABA152005203540009A152000F2816DD46
:100D4000A0F110021F2A04DC01239340184A13600B
:100D500070473F2A04DC30380123164A8340F6E707
:100D6000492A22DC50380123134A8340EFE7031F4E
:100D70000B2B1AD8DFE803F01106151919191919E8
:100D80001919190E0D4B4FF40032196821EA0202AD
:100D90001A6070470A4B0122F7E7084B4FF4803284
:100DA000F3E7064B4FF48022EFE700F0C9B900BF2C
:100DB00080E100E084E100E088E100E024ED00E073
:100DC00010E000E00F2816DDA0F110021F2A04DC5D
:100DD00001239340174A136070473F2A04DC3038E0
:100DE0000123154A8340F6E7492A21DC50380123C4
:100DF000124A8340EFE7031F0B2B19D8DFE803F0FB
:100E000010061418181818181818180D0C4B4FF451
:100E1000003219680A431A6070470A4B0122F8E74A
:100E2000074B4FF48032F4E7054B4FF48022F0E794
:100E300000F05EB900E100E004E100E008E100E05C
:100E400024ED00E010E000E04FF0E02334494FF0E3
:100E5000FF3010B55B6803F00F035A1C03F1382311
:100E600061339B0041F8040B8B42FBD14FF0E02330
:100E70002C49C3F8081D4FF08031C3F8181DC3F882
:100E80001C1DC3F8201D5301274A03F1604303F5DD
:100E9000644342F8041B9342FBD10024234B2449B2
:100EA0000B2022461C6001F0A3FC224621490320AE
:100EB00001F09EFC22462049042001F099FC042008
:100EC000FFF780FF22461D49022001F091FC2246D7
:100ED0001B49052001F08CFC22461A49062001F02E
:100EE00087FC224618490E2001F082FC2246174951
:100EF0000C2001F07DFC22461549204601F078FCCB
:100F00004FF0E022D2F8FC3D23F48063C2F8FC3DB0
:100F100000F068F8C02383F3118862B610BD00BFEB
:100F200080E100E00000420000E400E0A41E402058
:100F3000BD12420091114200A1124200150D420063
:100F4000E50C4200B50C42008D0C4200650C4200DD
:100F50003D0C42007047F8B5C46C0D46836C1746D3
:100F600001261C4004B9F8BD344205D024EA060429
:100F70003946284601F05CFC76000135F2E70000B6
:100F80000A4603485A2108B5FFF7E5FF002008BDCF
:100F9000000E0E400A4603487A2108B5FFF7DBFF32
:100FA000002008BD00100E400A4603489A2108B5EB
:100FB000FFF7D1FF002008BD00120E400A4603488B
:100FC000BA2108B5FFF7C7FF002008BD00140E4086
:100FD0000A460348DA2108B5FFF7BDFF002008BD27
:100FE00000160E4070B54FF48063294D4FF0FF3668
:100FF0000022C5F810361A20D5F84C3E2549C5F810
:10100000446E01F0F5FB1A20234CFFF7DBFE4FF492
:101010000063002221491B20C5F81036E36C66648A
:1010200001F0E6FB1B20FFF7CDFE4FF480530022BA
:101030001B49C5F810361C20D4F84C32C4F8446261
:1010400001F0D6FB1C20FFF7BDFE4FF480330022D9
:101050001449C5F810362020D4F84C34C4F8446440
:1010600001F0C6FB2020FFF7ADFE4FF40033002255
:101070000D49C5F810362120D4F84C36C4F8446622
:1010800001F0B6FB2120BDE87040FFF79BBE00BF1A
:1010900000000E40810F420000100E40950F4200EC
:1010A000A90F4200BD0F4200D10F420000F01F0205
:1010B000012310F4004F03FA02F30C4A12D041044A
:1010C000C2F8B03E08D5C2F8C43E10F4005F074A2B
:1010D00005D0C2F8D43E7047C2F8C03EF5E7C2F86A
:1010E000D03E7047C2F8B43E704700BF00000E40CB
:1010F000592806DD792805DC5A380C4B012282403C
:101100001A647047992802DC7A38094BF6E7B92847
:1011100002DC9A38074BF1E7D92802DCBA38064BD3
:10112000ECE7F928EDDCDA38044BE7E7000E0E4077
:1011300000100E4000120E4000140E4000160E402B
:10114000592806DD792805DC5A380C4B01228240EB
:101150005A647047992802DC7A38094BF6E7B928B7
:1011600002DC9A38074BF1E7D92802DCBA38064B83
:10117000ECE7F928EDDCDA38044BE7E7000E0E4027
:1011800000100E4000120E4000140E4000160E40DB
:101190004FF0E023F0B5D3F82C4D85B0D3F8287D7F
:1011A0000646D1F884300D46DFF8ECE0A3F1020CDE
:1011B000F4450DD3DFF8E4E0F44509D233F8023CFE
:1011C000B3F55F4F04D105B0BDE8F04000F076B84C
:1011D000630004D5264A0020264900F0E1F9244A9C
:1011E0000020254900F0DCF93346214A002023493C
:1011F000009500F0D5F9EFF31183EFF31082EFF3D0
:101200000581EFF31480D2B2DBB20092184ACDE927
:1012100001101B49002000F0C3F94FF0E02300202B
:10122000D3F8302DD3F8381DD3F83C3DCDE900423A
:10123000CDE902130E4A3B46124900F0B1F90020F5
:101240000B4A114900F0ACF914F002000BD0084A27
:1012500000200E4900F0A4F9EFF3108372B6AD211F
:101260000B4800F05DF9002CF6DA014A0949F1E774
:101270009D035400C6A15200E2A15200FCA15200FD
:1012800013A252004EA252008BA25200A3A25200FF
:10129000DBA25200C9A252000000420080075800A1
:1012A00008B54FF0E023D3F8283DEFF3108372B672
:1012B0006521014800F034F9F3A25200CA6E012AF8
:1012C00008B508D0022A0AD01AB9D422086F00F053
:1012D0001FF8002008BD0A6F034B1A60F9E70A6F78
:1012E00011604A6FF8E700BFA41E40200000000014
:1012F00018DF88DFCD06CD767CD30CD3D982D91206
:101300002C00050A0F14191E232800BFAFF300801C
:1013100000B501B400F004F801BC00BDAFF30080DB
:1013200000B5042A60DB00F0030E61F3830E7A4BF4
:10133000D3E80EF0AFF30080AFF30080AFF300808E
:1013400011F8013B00F8013BA2F1010211F8013B49
:1013500000F8013BA2F1010211F8013B00F8013B4A
:10136000A2F101022DE9F01F282A07DBB1E8F81FDE
:10137000A0E8F81FA2F12802282AF7DADFF89CE19A
:101380004FEA920BDEE80BF051F8043B40F8043BC7
:1013900026E0B1E81800A0E8180021E0B1E8380024
:1013A000A0E838001CE0B1E87800A0E8780017E079
:1013B000B1E8F800A0E8F80012E0B1E8F801A0E810
:1013C000F8010DE0B1E8F803A0E8F80308E0B1E89F
:1013D000F807A0E8F80703E0B1E8F80FA0E8F80F75
:1013E000BDE8F01F02F00302002A08BF00BD11F89B
:1013F000013B00F8013B013A08BF00BD11F8013B79
:1014000000F8013B013A08BF00BD11F8013B00F8AC
:10141000013B00BDAFF30080AFF30080AFF300806D
:1014200011F8013B00F8013BA2F1010211F8013B68
:1014300000F8013BA2F1010211F8013B00F8013B69
:10144000A2F10102282A35DB2DE9F01FB1E8F81FCF
:1014500020F8023B4FEA134364F31F434FEA14445E
:1014600065F31F444FEA154566F31F454FEA1646DC
:1014700067F31F464FEA174768F31F474FEA1848BC
:1014800069F31F484FEA19496AF31F494FEA1A4A9C
:101490006BF31F4A4FEA1B4B6CF31F4BA0E8F80F8E
:1014A0004FEA1C4C20F802CBA2F12802282ACDDA00
:1014B000BDE8F01F042A97DB51F8043B20F8023BFB
:1014C0004FEA134320F8023BA2F10402BAE711F8F5
:1014D000013B00F8013BA2F1010211F8013B00F8C9
:1014E000013BA2F1010211F8013B00F8013BA2F11E
:1014F0000102042AFFF678AF51F8043B00F8013BE3
:101500004FEA132320F8023B4FEA134300F8013B54
:10151000A2F10402EDE70000F012420000134200C5
:1015200008B507F0D9FB012000F000F8044608B523
:1015300000F003F8204601F007FFF8B5064600F07A
:101540005DF80C22C46B0027651E02FB0404002D0D
:1015500000DAF8BDD4E90D23E16BC4E90E7713B1CD
:10156000012A03D19847013D0C3CF0E7022A02D141
:1015700030469847F7E7032AF5D108469847F2E73F
:10158000064B07B51B780341DB0703D5019201AA7F
:1015900000F02AFD03B05DF804FB00BFEC0440201E
:1015A0000EB403B503AA52F8041B0192FFF7E8FF3B
:1015B00002B05DF804EB03B07047000030B50D4B8E
:1015C0000024D3E900528A4211D08D4205D0013463
:1015D00008331F2CF5D14FF480528368C16123F486
:1015E000805323F00F0313438360002030BD29464E
:1015F000F3E700BFAC035400C069704708B500F0C2
:1016000002F8006808BD1FB5002001A901F086F9A5
:101610000028ACBF0298002005B05DF804FB000074
:1016200007B578B1094AB0FBF2F302FB13006A4632
:1016300000934FF47A7358430023019019461846DB
:1016400001F034FC03B05DF804FB00BF40420F0022
:1016500008B5FFF7D8FF08B1143008BD0048FCE713
:10166000A81E402070B504460D46E36D20469B6AD7
:1016700098470028F9D0E36D294620461B6ABDE84B
:10168000704018472DE9F84F858F0446B0F9403077
:101690000F462DB290464FF001090135AB42D8BF3D
:1016A0000025E38F1BB2AB4208D0A38F2DB2626C32
:1016B00000201BB2D754A587BDE8F88FB8F1000F02
:1016C0002BD0EFF3108A72B6E38F1BB2AB421FD15F
:1016D000E37803F0FF0BEBB9E36D0121204684F8BA
:1016E00001905B6A984704F11C0001F039F9E36D41
:1016F000064659465B6A204698471AF0010F00D10A
:1017000062B6E37863B9002ECBDA6FF00300D3E75B
:101710000026F2E76FF07F06EFE76FF00A00CBE7F5
:101720006FF07F00C8E72DE9F047836807460E4653
:1017300090465C6904F14809484601F011F9051E1C
:1017400063DB0025454552D357E0B4F85230B4F876
:10175000502019B212B28A421FD0A26D0133525CDE
:101760001BB2B4F954109942D8BF0023A4F85230E8
:10177000A36813F4E07F05D00A2A07D113F0400FC5
:1017800018BF0D22013506F8012BDBE70D2AF9D130
:1017900013F4807F18BF0A22F4E7002D2DD1BB6817
:1017A000002B5AD03D6815F0400559D1EFF3108A4F
:1017B00072B6E36D294620469B699847B4F85020DD
:1017C000B4F8523012B21BB29A423CD1E36D0121FF
:1017D00020469B699847B4F85020B4F8523012B2B2
:1017E0001BB29A4214D01AF0010F00D162B6E3780E
:1017F000002BAAD00DB96FF07F05E36D20460121C3
:101800009B699847484601F0F5F82846BDE8F087FF
:10181000E3788BB9012304F12400A37001F0A0F850
:101820001AF0010F00D162B6002808DAE378002B25
:10183000E1D16FF00305E0E76FF07F00F0E7E378B8
:10184000002BD4D0F2E71AF0010F00D162B6E36D9D
:10185000012120469B699847C9E76FF05005CCE706
:101860006FF00A05C9E72DE9F04183685E6906F16A
:101870001405284601F074F8041E1BDBF378002BD6
:1018800030D13378013313F0FF072ED0012F27D149
:10189000EFF3108872B633797BB9F36D30461B686D
:1018A0009847041E09DA18F0010F00D162B62846E5
:1018B00001F0A0F82046BDE8F081F36D30469B684A
:1018C0009847041EF36D03DA5B6830469847EAE7F1
:1018D0009B6901213046984718F0010F00D162B68C
:1018E0003770E4E76FF07F04E1E76FF01704DEE79D
:1018F000F7B50E4600F1600500F1700455F8047F5D
:10190000B7B17B68BA6843F0180333401343BB6038
:1019100073B1094A06200949FFF742FE01A9386957
:1019200009F0AEFB019B002B02DC386901F062F884
:10193000A542E3D103B0F0BDA40454000AA35200B1
:101940002DE9F84383680E4615465C69002C63D088
:10195000002961D004F12C08404601F001F8071E6F
:101960004ADB002D52D004F16002002352F8045FDC
:10197000002D37D104EB8302193304F1340904EB51
:10198000830356664846736101F01EF8A38FB4F9CD
:1019900040201BB201339A42D8BF0023E28F12B21B
:1019A0009A422CD1484604F1480901F023F84846F0
:1019B00001F00AF8B4F85020B4F85230484612B298
:1019C0001BB29A421EBF736803F001031D4301F06E
:1019D00011F8E378BBB145F0180529462046FFF71A
:1019E00087FF06E00133042BC0D100236FF00F07FF
:1019F0007361404600F0FEFF3846BDE8F883756825
:101A000005F00405CEE7002DF3D0E6E77369002B5F
:101A1000EFD01D607561ECE76FF01207ECE7000096
:101A20002DE9F04783680746894616465D69434BB2
:101A30001B6823B1EB78ABB16FF07F041EE000F0C0
:101A400061FF0028F6D105F1340A504600F088FF06
:101A5000041E13DBEB7803F0FF0153B3504600F094
:101A6000C9FFE9E7EFF3108472B609EB0607B94541
:101A700007D114F0010F00D162B634462046BDE80C
:101A8000F087EB6819F8011BD80703D50D2905D19C
:101A90001A0705D42846FFF7E5FDE8E70A29F9D13A
:101AA00013F0240F03D00D212846FFF7DBFD0A2198
:101AB000F0E73F78B046EB6D2846C7F380175B6AC6
:101AC00087F001079847FFB2B8F1000F01D1344603
:101AD00024E0EB6819F8011BD80703D50D290AD1BA
:101AE0001A070AD43A462846FFF7CCFD044688B9BF
:101AF00008F1FF38E8E70A29F4D113F0240F01D1E7
:101B00000A21EFE73A460D212846FFF7BBFD0446C0
:101B10000028F5D0B04501D2A6EB0804AA8FEB8FC0
:101B200012B21BB29A4204D0EB6D012128465B6AC7
:101B30009847504600F05EFFA0E700BFA41E40207B
:101B40002DE9F04700F1340704460E46384600F010
:101B500007FF051E17DBEFF3108972B6E37803F079
:101B6000FF0563B3A38F6FF07F05E38719F0010FC3
:101B700000D162B6DFF87880002DD8F800902DDA19
:101B8000384600F037FF2846BDE8F087E36D0121B5
:101B9000204684F801A05B6A9847404600F0E0FECA
:101BA000E36D054600215B6A20469847002DDDDB8A
:101BB000A28FE38F12B21BB29A42E7D1D6E74FF061
:101BC000010A04F11C08F3E74FF47A7001F0A0F960
:101BD000D8F80030A3EB0903B34206D2E36D2046E8
:101BE000DB6A98470028EFD0CAE76FF07305CAE7B1
:101BF000B89E40202DE9F0410B7905460C462BB1EB
:101C00000B6943F001030B610523CB600122002126
:101C100004F1340004F11C0709F019FA0122002133
:101C200004F1480009F013FA0122002104F1140024
:101C300009F00DFA0022384604F12406114609F095
:101C400006FA00223046114609F001FA012200216D
:101C500004F12C0009F0FBF90021384601F0BBF833
:101C60000021304601F0B7F8234628464FF4DB72D6
:101C70000249BDE8F04100F07DBB00BFB404540050
:101C800010B504460121FFF733FEA3783BB10023D2
:101C900004F12400A370BDE8104000F0ABBE10BDFD
:101CA00010B504460421FFF723FE63783BB10023FF
:101CB00004F11C006370BDE8104000F09BBE10BD35
:101CC00070B583680E4615465C69E36D1B6953BBAE
:101CD00040F207339E422DD0B6F5427F1BDAB6F5AF
:101CE0008A7F76D040F215139E4200F089806FF013
:101CF000180040F201139E4200F08D80B6F5817FFE
:101D000030D1002D00F08F802B68A3606B68E360FA
:101D1000EB68236125E030D040F209339E4240D089
:101D20006FF018001EE0984710F1190FD0D000286E
:101D3000DFD017E0EFF3108072B6B4F85220B4F899
:101D4000503012B21BB29A420DDCB4F85030B4F8E5
:101D500052201BB212B29B1A10F0010F00D162B6D2
:101D60002B60002070BDB4F85220B4F8501012B2AD
:101D7000B4F9543009B2521AEDE7EFF3108072B69D
:101D8000E28FA38F12B21BB29A4203DCA38FE28FC1
:101D90001BB2DFE7E28FA18F12B2B4F9403009B273
:101DA000E9E7EFF3108072B6A28FE38F12B21BB295
:101DB0009A4206DAE38FA28F1BB212B29B1A013B42
:101DC000CAE7A28FE18F12B2B4F9403009B2521AB9
:101DD000F4E7EFF3108672B635F0020303D1B4F8DE
:101DE0005030A4F85230013D012D04D8A38F204675
:101DF000E387FFF755FF16F0010F00D162B6B0E799
:101E00004FF47A712046FFF79BFE0028A9D010F10D
:101E1000190F85D0A6E735B1A3682B60E3686B6026
:101E20002369EB609DE76FF015009BE770B50446F2
:101E30000D46EFF3108672B681F00103C37089B9C5
:101E40001821FFF755FD637823B104F11C0065707C
:101E500000F0D0FDA3782BB1002304F12400A3707F
:101E600000F0C8FD16F0010F00D162B670BD10B5CC
:101E7000044600211C3000F012FE002104F1240071
:101E800000F00DFE012104F1340000F008FE0121F4
:101E900004F1480000F003FE04F12C000121BDE82C
:101EA000104000F0FCBD70B5836805465C6904F124
:101EB0001406304600F088FD2378012B06D9013B3B
:101EC0002370304600F096FD002070BD0021E36DC8
:101ED000204621709B6998472B685B0604D44FF419
:101EE000C8712046FFF72CFEEFF3108572B6E36D44
:101EF0002046DB68984723791BB9E36D20465B6871
:101F0000984715F0010F00D162B62046FFF7B8FEE2
:101F10002046FFF7ACFFD4E770B5002504462E46F7
:101F2000A28FE38F12B21BB29A4211D1A28FE38F1C
:101F300012B21BB29A4204D1E36D002120465B6AC3
:101F40009847ADB2EDB12046BDE87040FFF7A8BE9E
:101F5000E36D20469B6A98470028E7D0E38F204630
:101F6000616C1BB2E26DC95C126A9047E38FB4F9F1
:101F7000402001331BB29A42E38700DCE68701353B
:101F8000CEE770BDF7B5B0F850500446B0F9543004
:101F900000262DB20135AB42D8BF0025E36D2046A7
:101FA000DB69984730B9B6B216B12046FFF768FE34
:101FB00003B0F0BDB4F8527001A9E36D20463FB202
:101FC0005B699847AF42E9D0B4F850300136A26D52
:101FD0001BB2D0542BB20135A4F85030B4F95430B0
:101FE000AB42D8BF0025D9E730B585B00C461546C1
:101FF000684600F019F82A682146684609F034F965
:1020000005B030BD0D2938B504460D4607D0284629
:1020100000F016F8031E03DBE3680133E36038BD0C
:102020000433F4D0FBE70000034B0360034B8360F1
:102030000023C360704700BF05204200BDC64200B8
:1020400038B50C4B04460C4D1B681BB1286858B9B9
:10205000204638BD00F056FC0028F7D1286800283B
:10206000F6D003681B6801E003685B682146984767
:10207000EEE700BFA41E4020F0044020F8B50E4655
:1020800000F1140500F12404EFF3108772B655F83F
:10209000042F42B15368916833400B43936013B1EE
:1020A000106900F0A7FC17F0010F00D162B6A5423D
:1020B000EAD1F8BD2DE9F04183680F4690465C698E
:1020C00004F10806304600F04BFC051E3ADBB8F17F
:1020D000000F3AD004F11402002352F8041F39BB58
:1020E000063344F8237004EB83037B61EFF3108025
:1020F00072B623682269013361689A4298BF00234F
:10210000C91A23686768134418BF0121DB1B8900C3
:10211000B3FBF2F702FB17330BB141F0010110F0F2
:10212000010F00D162B651B12046FFF7A7FF06E0CC
:102130000133042BD1D100236FF00F057B613046B2
:1021400000F058FC2846BDE8F0817B69002BF6D0F2
:10215000C3F80080C7F81480F1E72DE9F0418368E7
:102160000F4616465D6905F10808404600F0F8FB89
:10217000041E0FDB00242046B44203D02A686B689B
:102180009A420AD1404600F035FC1CB10421284691
:10219000FFF774FF2046BDE8F0816A686B69995CBF
:1021A0006A6898546B682A69013393426B6000D364
:1021B000686039550134DFE72DE9F041284E0446C7
:1021C0000F46B04223D10368B3F5004F1FD14368D7
:1021D000B3F5004F1BD100254FF00108D0E90420D2
:1021E000831813F8011CAA420BD010F905C0435DF7
:1021F000BCF1000F1FDA00210AF03FFB33699D425A
:1022000002D1B8F1000F02D0002373603360EFF306
:10221000108272B6236821690133994298BF002366
:102220006168994212D112F0010F00D162B66FF0CD
:102230000F00BDE8F08129B10BB998463560013532
:102240001946D0E7002BFAD07560F8E7216860697D
:102250004754236012F0010F00D162B60020E8E776
:10226000F80440202DE9F84300F1080704468946A8
:102270009046384600F074FB051E1BDB45460026E1
:10228000B04505D019F806102046FFF795FFA0B11C
:102290006EB122692368616813445B1AB3FBF2F1E3
:1022A00002FB11331BB101212046FFF7E7FE384640
:1022B00000F0A0FB2846BDE8F8830136E0E783681C
:1022C0005869FFF7CFBF2DE9F04183680E461746E6
:1022D0005D6905F10808404600F042FB041E10DB72
:1022E00040F207339E420FD129692B686A680B447C
:1022F0009B1AB3FBF1F201FB12333B60404600F046
:1023000079FB2046BDE8F0816FF01804F6E7000085
:10231000034B4FF4DB720349034800F02BB800BFB6
:10232000F8044020E804540024A3520038B50D4DB1
:102330000C46C9B22846FFF73FFF78B92A692B68D7
:10234000696813445B1AB3FBF2F102FB11331BB152
:1023500001212846FFF792FE204638BD6FF00F049A
:10236000FAE700BFF80440200148FFF77BBF00BF39
:10237000F80440202DE9F34107460E4690461D46DD
:1023800000F01CF8041E12DB01AA4146384600F09A
:102390007BF8041E09DB019B0024DA8922F00F027E
:1023A00042F00102C3E90465DA8100F029F8204611
:1023B00002B0BDE8F08100F05BB8000038B50F4C0A
:1023C00000F0B4FF0546A368984204D1A389002019
:1023D0000133A38138BD204600F0FEFA002807DA59
:1023E000FFF736F900680428F5D08C28F3D0404276
:1023F0000028EFD10123A560A381EBE72005402051
:1024000008B500F093FF0A488389012B0CD1002303
:1024100083814FF0FF33836000F034FB002805DA3E
:10242000BDE80840FFF714B9013B838108BD00BF38
:102430002005402010B503460446184613F8012B2A
:102440002AB9001B1C3008F06BF918B910BD2F2AEF
:10245000F3D1F6E700F11803013C14F8012F12B98B
:1024600000221A70F2E72F2AFAD003F8012BF4E7C2
:1024700008B50348FFF7DEFF024B186008BD00BF38
:10248000CE385300AC9E402000232DE9F041164683
:1024900088B013600278002A45D08DF81C30CDE951
:1024A000010301A8CDE90333CDE9053300F04AF873
:1024B000002835DA019FDDE90354384600F036F88C
:1024C000037880463846D3B1FFF7B4FF48B96FF0C0
:1024D0000B04069808B108F003F9204608B0BDE8DF
:1024E000F0813DB16B68C0E900436860474604462F
:1024F0000025E2E7A368C0E90043A060F6E7FFF724
:1025000099FF0028E3D035B16B68C0E900436860EB
:1025100000243060DDE7A368C0E90043A060F7E76E
:102520006FF01004D5E76FF01504D6E70278034684
:1025300001300AB12F2AF9D11846013302782F2A27
:10254000FAD07047F8B5036804461A782F2A11D0DC
:1025500005462C4800F068F82B4A55F8143B002833
:1025600018BF02462949284608F034FE6369002B4B
:1025700041D02360264A11681A782F2A3ED10025BF
:102580002E4641B90A466FF001002261C4E90031CC
:10259000C4E90265F8BD01F117005F1E10F801CF14
:1025A00017F8012FBCF1000F06D182B12F2A0ED0EF
:1025B0004A680E461146E4E722B12F2A02D062454E
:1025C000F6D8EBD200216FF001000A46DDE718468D
:1025D000FFF7ACFF0346007840B1CA8902F00F0252
:1025E000032A05D08A680D460021E2E71A46CCE7A7
:1025F0001A460020C9E76FF00B00CBE76FF015001B
:10260000C8E700BFFDB652003B2D530030A3520077
:10261000AC9E402006F072BA024A13680133136080
:10262000704700BFB89E402038B5044618B300F08C
:1026300031F9124B1B689D688DB12146284600F088
:10264000E3FF041E0CDB2B6C3D2153F824000AF041
:102650005CF968B1441C00F02DF9204638BD2C46C9
:1026600000F028F96442FEF7F3FF04600024F4E769
:102670006FF01504F4E76FF01504F3E7A89F40200E
:102680003F4C01233F4DA82204F18C0683B5002165
:1026900020462B700AF0F1F8032318223A493046FD
:1026A00023773A4B3A4FC4E905330623A3860AF051
:1026B00049F9384920463E6008F05CFC364B374EFD
:1026C0001C6002232B7000F00AFA01A9684606F08C
:1026D00003FADDE9000107F0F5FF042333603368F6
:1026E000012B49DD3068800008F01AF82C4B186087
:1026F00033680460224894F8341001F035F8A36878
:102700001F489B6A9F6006F0B9FD1D4800F02AFE35
:102710001B4801F057F8A36805221A720022214BCA
:102720001A6003232B7000F0B5F80BF099FD1E4BD7
:102730000BB101F0A7F81D4B0BB1FFF76BFF1C4B62
:102740000BB101F09FFE02F015F906F039FC0AF01A
:102750000FFD04230A482B70F5F068FE084801F0CD
:1027600061F805232B7000F025F806232B7000F08C
:10277000A1F806F081FDFCE733685B00AEE700BF1F
:10278000C49E40206C9F40200805540081264200D2
:10279000BC9E4020A89F4020A49F4020709F4020C6
:1027A000749F4020789F40208538420015264200C3
:1027B0008544420013B5002401220949094800F06C
:1027C0003BFF00F063FE00F06DFE074B40F67A42DF
:1027D00064210094054800F0DCFB204602B010BDE7
:1027E0003B2D5300FDB65200DD49420036A3520096
:1027F000F92870B505460C4613D8EFF3108672B66B
:1028000019B9FEF79BFA2246074C084B43F83540AE
:1028100003EBC5035A6016F0010F00D162B6002029
:1028200070BD6FF01500FBE76D28420034A2402018
:10283000F92808B50CD8094A52F830305BB102EBE0
:10284000C00252689847064B1A68064B1A6008BDCA
:102850000022054BF6E71A46FBE700BF34A24020F2
:10286000A89F4020A49F40206D28420008B5034641
:10287000EFF3108272B604490320044AFEF790FE7B
:1028800036210348FEF74CFE3FA352005405540086
:1028900052A35200054B1B682BB1054A126812B9AE
:1028A000DA8E0132DA860020704700BFA89F4020F0
:1028B000A41E4020104B10B51A6892B10F4B1B6834
:1028C0007BB9EFF3108472B6B2F93630002B0ADC14
:1028D0000023D3860A4B1B685BB914F0010F00D1AB
:1028E00062B6002010BD013B9BB2D386002BF4D111
:1028F000EEE706F081FBF0E7A89F4020A41E4020F1
:102900009C9F4020044B1B6823B11868B0FA80F0EC
:102910004009704701207047A89F402038B50F4BF1
:102920000C461D6870B100F0D3FFA0B1AB8E03F070
:102930000303022B07D0AA6883689A4203D06FF082
:102940000C0007E02846C36C2360036D6360436D91
:102950000020A36038BD6FF00100FBE7A89F402076
:10296000184B70B504461D68EFF3108672B628B395
:1029700003881BB2002B038803F1FF331BB20380D3
:1029800009DD002400F0C6F9AC6516F0010F00D196
:1029900062B6204670BDA865FFF77CFF204600F0B8
:1029A000C1F90023052128462B8706F093FAB5F9D3
:1029B000384004B16442FFF77DFFE6E76FF015048D
:1029C000E3E700BFA89F402010B504462046FFF76C
:1029D000C7FF031DFAD010BD10B5FFF7C1FF041EDD
:1029E00006DA6442FEF734FE04604FF0FF3010BD9B
:1029F0000020FCE770B5054600283ED0EFF31086B6
:102A000072B6038847F6FF721BB2934206D116F0E6
:102A1000010F00D162B66FF08A0070BD00F08CF932
:102A20002B8801331BB22B80FFF734FF2B881BB29E
:102A3000002B20DC124B1C687CB1A36DAB4218D17B
:102A40002946204600F03EF904F13C0000F098FCD5
:102A500000232046A36506F06DFB2946204600F0C2
:102A60008FF9FFF727FF16F0010F00D162B60020A3
:102A7000D3E72468E0E70024EFE76FF01500CCE728
:102A8000949F402010B5FFF7B5FF044628B164427B
:102A9000FEF7DEFD04604FF0FF34204610BD70B538
:102AA00005460C46FFF7F6FEEFF3108672B62B884C
:102AB0001A040AD42B881B040FD516F0010F00D17D
:102AC00062B6FFF7F7FE002070BD002CF2DD013C7E
:102AD0002846FFF78FFF24B2E9E72C80EDE700F0EE
:102AE000CDB80000CA6802F13003126B22B11A6837
:102AF0008A4213D14A681A600023C1E90133CB60CE
:102B00000B82031D426822B11A688A4209D10A6801
:102B10001A60054B1A6819600A607047131D5268E5
:102B2000E4E713461268EEE7B09F402008B503467D
:102B30000846B3F91020002A04DC1946FFF7D2FF3B
:102B4000012008BD0020FCE708B50B4601461846E9
:102B5000FFF7C8FF002008BD10B5C068117C90F8D1
:102B60002E3099420ED9047CA1420DD9A34206D23F
:102B7000437F0F2B9FBFC11801338C774377117CA4
:102B800000F0ECFE002010BD437F0F2B9FBFC2184A
:102B9000013391774377F5E70346084670B515464C
:102BA000B3F91020DC68002A02DC1946FFF79AFF0F
:102BB000227C94F82E108A4204D0637F23B92046E9
:102BC00000F00EFF002070BD297C8A4218D804F165
:102BD0001E060020012225189A42A97F09DB013B2D
:102BE00020461EBFE218927FAA77637700F0B6FEF8
:102BF000E8E716F8015F8D4288BF10460132EAE728
:102C000004F11D00002210F8015F8D4207D1013B45
:102C10001FBFE1181219897F91776377D2E70132DC
:102C20009A42F0DBCEE70000054B10B51B68C46884
:102C30009C4203D1FFF7B0FF012010BD0020FCE74C
:102C4000A89F4020044B10B51B68C4689C4201D06B
:102C5000FFF7A2FF002010BDA89F4020F8B5044652
:102C60000D4616464068002300B103B1F8BD076861
:102C700032462146A84703463846F5E7074A002171
:102C8000074B1A6002F11403013143F8143C14336A
:102C90001F29F9D10023C2F86C327047B49F40203D
:102CA000B09F402010B5EFF3108472B600220449A3
:102CB000FFF7D4FF14F0010F00D162B610BD00BFC2
:102CC000492B4200036830B5DBB18B78DB0718D4A1
:102CD0004A681346B3B90E4C236893B11D681A6055
:102CE00000224B601A822560C3E90210026B5A6011
:102CF0000363B3F9102047F6FF718A421CBF01320B
:102D00001A8230BDDC68A042F3D01B68E2E700BF46
:102D1000B09F4020024B01461868FFF7D3BF00BFA9
:102D2000A89F4020024B03491A68FFF797BF00BFD6
:102D3000A89F4020592B42000C4B002210B5114691
:102D40001C68436833B9012A02BF0B8A03F1FF33C1
:102D50000B8205E0D968A14203D11A8A013A1A828E
:102D600010BD194601321B68ECE700BFA89F402048
:102D7000024608460149FFF771BF00BF992B420088
:102D800038B504460D4690B10A4B1B681BB1BDE82F
:102D90003840FFF7EDBF024607492846FFF75EFFC0
:102DA000224606492846BDE83840FFF757BF02468D
:102DB0000349F7E7A41E4020452C4200292C42007D
:102DC0002D2B420010B50446216B01B910BD886857
:102DD000FFF788FEF8E7012908B50AD002290DD0CF
:102DE00079B9827842F001028270FFF75BFF002020
:102DF00008BD827822F001028270F8E76FF085004A
:102E0000F6E76FF01500F3E710B5FFF7E4FF0446AF
:102E100028B16442FEF71CFC04604FF0FF342046EA
:102E200010BD00002DE9F7430E460546002836D0B8
:102E300042681C4B9A4232D8EFF3108772B6DFF823
:102E400068906846D9F8008008F047F92A460021C2
:102E5000684600F029FE10F10B0F044608D117F068
:102E6000010F00D162B60024204603B0BDE8F08314
:102E700086B101A9284608F0A5F8D9F800300198D4
:102E80003146A3EB080290428ABFC01A002040449A
:102E900008F08AF817F0010F00D162B6E4E76FF08E
:102EA0001504E1E7FFC99A3BB89E40207FB51D4657
:102EB000CB07144625D5EFF3108672B602A900F0B1
:102EC000FDFA002808DA16F0010F00D162B64FF0C3
:102ED000FF34204604B070BD6A4602A9204608F0BF
:102EE0008DF829466846FFF79DFF044616F0010F4E
:102EF00000D162B6002CECDA6442FEF7A9FB046054
:102F0000E5E729461046FFF78DFF0446F2E700008B
:102F100007B568B1084A0021B0FBF2F302FB1300C9
:102F200000934FF47A73584301906846FFF77AFF95
:102F300003B05DF804FB00BF40420F002DE9FF41E4
:102F40000546A820884616461F4607F0E9FB0446BA
:102F5000E0B10023A0F834802946324603930C9B4D
:102F600002930B9B01930A9B00933B4600F044F8AD
:102F7000051E06DA204607F0B3FB284604B0BDE87C
:102F8000F0812046E56800F091F9F6E76FF00B0557
:102F9000F3E71FB5069C00920A46CDE901340023F1
:102FA0001946FFF7CBFF04B010BD13B5049C009485
:102FB000FFF7EFFF041E05DA6442FEF749FB0460E9
:102FC0004FF0FF34204602B010BD1FB5079C02949D
:102FD000069CCDE9003413460A460221FFF7AEFFF6
:102FE00004B010BD13B5049CCDE900341346002293
:102FF000FFF7EBFF02B010BD2DE9F34790F8346006
:1030000088460546914631461F46DDF828A000F067
:10301000ABFB041E40DB0D9906F00306A86800F028
:10302000A9FA041E11DB284600F018FC041E0CDB74
:1030300087B152463946284606F0A6F8041E05DB3D
:10304000284600F08FF9041E13DA57B1284600F025
:10305000BFFB21E032465146284605F073FF041EAF
:10306000EEDA2B6D002BF1D03146284605F0EAFF51
:10307000ECE70B9B49460A4A2846009600F09AF86E
:10308000041EE2DB0C9A4146284600F0A3F8041E19
:10309000DBDB284600F096FB204602B0BDE8F08757
:1030A000D93242002DE9F74F04460E460192984668
:1030B000EFF3108972B6DFF8F8A03A4FDAF8005053
:1030C00000203B680135384A116888420EDB1068E1
:1030D000C00007F025FB344A0546002846D119F008
:1030E000010F00D162B66FF00B0039E0012D1168BD
:1030F000B8BF01250139294053F821B0BBF1000FB9
:1031000031D143F82140E560CAF8005019F0010FB1
:1031100000D162B6019BF6B29DF8302059460320DB
:103120002674667484F82E60C4E90538A38E62F3B1
:10313000010304F15C0223F06003A38600F074FC39
:10314000204684F81CB006F099F8FFF7A3FB174956
:10315000204607F00FFF04232377FFF7ABFB584609
:1031600003B0BDE8F08F01350130ADE711684FF0D5
:10317000000C0D4B490011601A68386802EBD272DE
:10318000BCEB620F03DB07F0ABFA3D6096E750F84B
:103190002C000CF1010C1A68C168013A0A4045F88C
:1031A0002200E9E7749F4020709F40207C9F4020D0
:1031B000789F402010B49DF8044001945DF8044BC2
:1031C000FFF770BF13B501240094FFF76BFF02B047
:1031D00010BD0000344B2DE9F74F002914BF88467D
:1031E0009846074600241546414618228C3009F0BF
:1031F000C5FB404687F8A44009F0B8FB461C4DBB10
:103200002C460234384606EB840105F06FFF064673
:103210004FEA8409002844D000EB090AA9F1080903
:10322000B346043DC0F800A0404609F09FFB0446A9
:10323000B14441460134504609F07CFB5444CB452F
:103240001BD100204AF8040CBB689B6A9E6003B047
:10325000BDE8F08F40F2011955F824000028D0D0C5
:10326000013609F083FBFB6C06449E4216D2013402
:103270004C45F1D16FF00600E9E74BF8044F55F8E3
:10328000041F0846019109F071FB80460199204610
:1032900008F1010809F04EFB4444D0E76FF05A00F2
:1032A000D5E76FF00B00D2E76705540038B5044648
:1032B000EFF3108572B6037F042B01D0F5F0D8F838
:1032C0002046F5F0B3F8204605F034FF15F0010F65
:1032D00000D162B638BD000038B5134B1C68A38E10
:1032E00003F00303022B02D0204600F0B3FEA368D4
:1032F000012040F201119B6A9A6852F820304BB9C4
:10330000A38EA56903F00303022B08D11146A84739
:10331000FEF70CF901308842EFD10120F8E70146B1
:10332000284607F089FEF8E7A89F4020054B18685B
:1033300030B1037F032B01D1C06870476FF00200EA
:10334000704700BFA89F40200446002208B5E4B2A1
:10335000034B2146186800F0A5FE204605F018FE34
:10336000A89F402010B51821044605F0BFFE20B1EB
:10337000A3689B6A0360002010BD6FF00B00FBE7A1
:1033800038B50446EFF3108572B6F8B14368EBB177
:10339000114B00201B68E3B1A34210D123681BB17D
:1033A0009A68A1680A449A6060B10B4907F0C7FDAA
:1033B0000020606015F0010F00D162B638BD1846DC
:1033C0001B68E8E7044807F0B0FDF1E76FF015006F
:1033D000F0E71B68FFDE00BF04AA4020F8B500221A
:1033E0000B461146586809F097F80546EFF310842C
:1033F00072B60026A4B200F108073846FFF7E4FAD7
:10340000284607F092FD03460028F6D00269002AFC
:10341000F3D040691E6114F0010F00D162B69047ED
:10342000EFF3108472B6A4B2E7E700002DE9F04193
:103430008CB004460E4617460DF11008114A2021A3
:103440001D46404607F0D3FECDF808804FF0000837
:10345000CDF80C80FFF71EFA02AB20463A46314603
:103460000093094BFFF7BEFD041E07DB2C614446A9
:10347000FFF720FA20460CB0BDE8F081FFF71AFAFA
:10348000F8E700BF6AA35200DD334200034B40F669
:10349000B832F9210248FFF7C9BF00BF44054020F8
:1034A0006FA35200034B4FF4206232210248FFF712
:1034B000BDBF00BF3005402076A35200431E012B44
:1034C00037B50D460CD8084600F03EF80446002CEF
:1034D0002DDA6442FEF7BCF804604FF0FF3426E0BA
:1034E000002827D1684600F02FF804460028EED1C6
:1034F000EFF3108172B6114A009B106852680344C2
:103500000093019B1344019311F0010F00D162B6A7
:103510000B4A019B934207DD0A48009A93FBF0F1A6
:103520000A4400FB11330092009AC5E900232046AB
:1035300003B030BD6FF01504CBE700BFB09E402054
:10354000FFC99A3B00CA9A3B084B4FF47A7210B5F8
:10355000044619680A200023A1FB000115F0CAF9EE
:10356000034B206000205343636010BDB89E402091
:1035700040420F002DE9F041224B0C4606461D68E3
:10358000FFF788F9F4B9AB681C6CDCB9FFF792F966
:103590002046BDE8F081013554F82570002FFAD19E
:1035A0006DB14FEA850808F1040007F0A1F807465D
:1035B000E0B10023444440F82530013D04D200240A
:1035C0003764E3E70025E7E754F8040C09F0CEF987
:1035D000013007F08DF847F8250068B907EB85053D
:1035E00055F8040F28B9384607F07AF86FF00B0445
:1035F000E6E707F075F8F3E754F8041D09F09AF9C7
:10360000DBE700BFA89F402070B5046C84B10020A8
:1036100054F8203063B14A1E013B12F8016F13F8D1
:10362000015FAE42F9D00EB93D2D03D00130EFE776
:103630006FF0010070BD00002DE9F0470F46144601
:103640000546002863D009B10B782BB9B4B12846E0
:10365000BDE8F04700F062B8FFF71CF92D4B1B687E
:10366000D3F80880D8F8403073B129464046FFF7B8
:10367000CBFF011E08DB24B9FFF71CF90020BDE8D1
:10368000F087404600F0F7FD284609F06FF9044640
:10369000384609F06BF92044023007F029F8064655
:1036A00050B3D8F840A0BAF1000F2ED1082007F08F
:1036B0001FF8F0B1D14654460134002340F80960A8
:1036C0002A4640F824303B46C8F8400030461249AC
:1036D00007F069FDD0E701345AF82430002BFAD105
:1036E0004FEA8409504609F1080107F011F8002853
:1036F000E2D1304606F0F4FF0C24FFF7DBF8FDF7CB
:10370000A7FF04604FF0FF30B9E70024E4E7162478
:10371000F5E700BFA89F40207DA3520038B5114BAC
:1037200004461B689D6828B103781BB13D2109F050
:10373000ECF830B1FDF78CFF162303604FF0FF303B
:1037400038BDFFF7A7F845B121462846FFF75CFFD3
:10375000011E02DB284600F08EFDFFF7ABF80020CB
:10376000EEE700BFA89F402070B506464FF47D707D
:1037700006F0D6FF044610B300F0D7FC051E04DAAD
:10378000204606F0ADFF284670BD04F14400B46049
:103790000AF097FD204608F0EBFD0122002104F11C
:1037A000180007F054FC0C34002200252046114676
:1037B00007F04DFC00212046FFF70DFBE3E76FF01B
:1037C0000B05E0E7D0E902321A6001225A72704715
:1037D00038B58468054634B1637A012B04D9013BBE
:1037E00063720023AB6038BD204600F0AFFC20467A
:1037F00000F068FA204600F053F804F144000AF0A3
:1038000064FD204608F0D3FD204600F020FDA37A99
:1038100023B1237A43F008032372E2E7204606F03F
:103820005FFFDEE738B5032105460B480BF02FF9A3
:10383000041E0BD101210AF045FE204602210AF0A8
:1038400041FE2846BDE8384000F033BD01DD0AF0F6
:1038500088FE6FF0160038BDA4A05200084B10B5CA
:103860001B68044681689868443144300AF0D0FDF2
:10387000002804DB2046BDE8104000F01ABD10BD52
:10388000A89F40200023044A044942F83310013322
:10389000FA2BFAD1FDF7D8BA34A240206D284200A5
:1038A00038B50446256A2DB904F11800BDE8384042
:1038B00000F0A0B8284650F8143B236200F09AF8B4
:1038C00005F10C0000F096F8284606F009FFE9E73C
:1038D0000346EFF3108172B60B4A106860B1002BFB
:1038E0000FDB0A4A1268013A1A4050F8220018B158
:1038F000C2689A4218BF002011F0010F00D162B6D1
:1039000070470020F8E700BF749F4020709F402060
:1039100038B50446E0B1C2687AB1EFF3108072B6F0
:103920000C4B00251B68013B13400B4A126842F800
:10393000235010F0010F00D162B6236D13B1204661
:1039400005F080FB2046FFF743FF204606F0C8FE47
:10395000002038BD709F4020749F4020F8B54B1E5A
:103960000446FE2B34D8EFF3108772B6037FCDB236
:10397000022B0ED0032B18D103681B7C994225DC47
:10398000294605F071FB17F0010F00D162B6002047
:10399000F8BD114B1B681B7C9942F1DC00F0E2FC86
:1039A0002046257400F0BAFCEDE70C4A02EBC30197
:1039B0000979C9070AD552F83360314607F0E5FAAC
:1039C00031462046257400F0E1FCDCE72574DAE797
:1039D0006FF01500DCE700BFA89F402014055400DD
:1039E00038B504460D46FFF7B9FF10B984F82E50DC
:1039F000607738BD08B540B103881B0401D40123AA
:103A00000380FFF74FF9002008BD6FF01500FBE7BA
:103A100008B5FFF7EFFF28B1FDF71AFE1623036084
:103A20004FF0FF3008BD0000F8B51746154B0646AD
:103A30000C461D68FEF72EFF0FB1EB6D3B609CB18D
:103A4000EFF3108272B6022E12D0032E15D0012E83
:103A500015D1EB6D21680B430024EB6512F0010FCB
:103A600000D162B600F096F8FEF724FF2046F8BDBC
:103A70002168EB6D23EA0103EEE72368ECE76FF0C2
:103A80001504EBE7A89F4020027F062A0AD140F2E6
:103A9000FF22A0F87420742280F87620002282672A
:103AA00005F048BB70470000354B2DE9F74306464B
:103AB0000D4691461C68EFF3108772B6D0F800806F
:103AC000204600F0D1FD08EA00000190B0B101A845
:103AD00000F0D0F80146204600F08EF81DB1436892
:103AE0002B6083686B60067900F0A4F817F0010F73
:103AF00000D162B6304603B0BDE8F0833368236678
:103B0000B9F1000F30D01F4A04F13C08DFF880E023
:103B10000023D9E900C0C11780181B4A41F10001F8
:103B2000ECFB0E0114F0E6FE23460146174A404620
:103B300000F016FB2046062105F0CCF94046FFF7C1
:103B40001FFC94F8741000231F29236611D83046F7
:103B500007F0C7FA80B194F87460002DC6D0636F87
:103B60002B60A36F6B60C1E70621204605F0B2F918
:103B7000E7E76FF00A06F0E76FF00306EDE700BF36
:103B8000A89F40207F96980080969800893A42002E
:103B900000CA9A3B174B37B51D68FEF77BFEEC6DEC
:103BA000284600F061FDE4430440019424B9FEF787
:103BB00081FE204603B030BD01A800F05BF8431C35
:103BC000044610D0014601A807F07BFA214628469A
:103BD00000F012F8044630B1011D284600F086F8C6
:103BE000204600F027F8019B002BE5D1FEF762FE8E
:103BF0000120DFE7A89F402038B58368EFF31085E8
:103C000072B600205C6B3CB122798A420AD103F182
:103C1000340150B107F093F915F0010F00D162B6ED
:103C2000204638BD20462468EDE7084607F07DF9B8
:103C3000F2E70000037B10B553B9EFF3108472B6BE
:103C40000A4907F03EF914F0010F00D162B610BD29
:103C5000022B04D1EFF3108472B60549F1E7012B72
:103C6000F5D1BDE8104006F03BBD00BF14AA4020CE
:103C70000CAA402038B5054601242146284607F005
:103C800030FA20B90134202CF7D14FF0FF34204610
:103C900038BD38B5044600F16405284607F045F9FB
:103CA00050B904F16C05284607F03FF938B94FF0D8
:103CB000FF32C4E9172038BD00F024FDEDE700F025
:103CC00021FDF0E738B5044600F12C05284607F041
:103CD0002CF928B93434204607F027F918B938BD33
:103CE00000F02CFCF2E7FFF7A5FFF4E72DE9F04127
:103CF0000D4609780446F1B15C3007F0F2F901286D
:103D0000074664D1EFF3108672B6237F062B14D1D9
:103D1000297804F1600007F0E4F970B12B682046BF
:103D200063676B68A3670023236605F003FA16F048
:103D3000010F00D162B600269EE016F0010F00D1FF
:103D400062B6A4682978EFF3108272B6636B13B180
:103D50001879884209D112F0010F00D162B633B14F
:103D60002A685A606A689A60E5E71B68EFE7474B84
:103D70001B68C3B1464807F0D8F820B9454807F09A
:103D8000D4F80028D7D02B6843606B688360EFF3CA
:103D9000108572B604F1340107F093F815F0010FA5
:103DA00000D162B6C7E7EFF3108672B6384807F065
:103DB000BCF816F0010F00D162B60028E3D1102044
:103DC00006F096FC0028B6D001230373DBE7FEF76C
:103DD00061FD2978A06800F05DFC064620B34368C9
:103DE00013B300F069FC002849D073684360B268DF
:103DF0008260F3689B0604D4297801238B40134327
:103E000083602B68C3606B680361EFF3108672B642
:103E100004F1640107F055F81F49204605F070FAD7
:103E200016F0010F00D162B60026FEF743FDEFF356
:103E3000108872B6237F062B08D12B682046636753
:103E40006B68A3670023236605F074F918F0010F6F
:103E500000D162B6002F15D1237F052B03D1042199
:103E6000204600F0F2FA237F072B05D12B78082B90
:103E700002D1204600F0C4FA3046BDE8F0816FF070
:103E80000B06D2E7F8DA6FF01506F5E7A41E40201E
:103E900014AA40200CAA40209D3E42002DE9F74F75
:103EA0000446FDF7D5FB0368B4F9388004F1640AD1
:103EB00004F16C070093EFF3108972B6A28E12F42E
:103EC000007301930CD019F0010F00D162B6FDF719
:103ED000BFFB009B0360A4F8388003B0BDE8F08FFF
:103EE000504607F022F806460028ECD0A28E39464C
:103EF00042F40072A28606F0E4FFD4F85CB0B56824
:103F00004BEA0505E56519F0010F00D162B673684B
:103F100006F10C01019A307B9847EFF3108972B6D5
:103F2000A28E3946304622F40072A286E26D5540D8
:103F300082EA0B02154085EA0B05E56506F0DFFF16
:103F400019F0010F00D162B6FFF724FE304600F0F1
:103F5000D9FBB0E7704700000F4B70B51D68AC6827
:103F6000FEF798FCE37A5A0706D4284600F02EFAAA
:103F7000BDE87040FEF79EBC626900230AB1136081
:103F8000636104F10C06E372A3891B04EDD530468E
:103F9000FEF730FDF8E700BFA89F402008B5064BAC
:103FA0001B689B8E03F00303012B02D1002006F057
:103FB00081FF0120FDF7BAFAA89F402008B580686C
:103FC0003C3007F08EF80028D4BF0020012008BD47
:103FD0000023094A10B512F8334002EBC3018442B2
:103FE00004D14878C04300F0010010BD01330B2B11
:103FF000F1D10120F9E700BF7005540038B58068A1
:104000004AB10023124A12F8335002EBC304A9420A
:104010000DD164687CB9EFF3108472B63C3007F0C0
:1040200050F814F0010F00D162B600240DE0013306
:104030000B2BE8D1EFE7EFF3108572B63C3007F0B9
:1040400034F815F0010F00D162B6204638BD00BF2C
:10405000700554002DE9F04386680024104D4FF0A0
:1040600002093C36A04685B0304607F036F86B684A
:1040700073B12F7801A90022CDF80C903846CDE914
:104080000138012300F068FA3946304607F00DF890
:10409000013408350B2CEAD1002005B0BDE8F083CF
:1040A0007005540070B5838E0E460446190517D46A
:1040B0003AB9806828B1437A012B02D1543008F014
:1040C00048F8204600F025F8A56855B92046FFF7C6
:1040D0007FFB2046FFF7DDFDA38E43F40063A3863C
:1040E00070BDA38E03F00303012B03D06B690BB1EA
:1040F00036021E606B7A012BE8D1002305F10C0615
:104100006B61EB72AB891B04E0D53046FEF772FCA5
:10411000F8E710B5044600F0E2F8204600F094F805
:104120002046BDE8104000F076B938B505464C2071
:1041300006F0F6FA044630B10122002106F087FFAE
:104140000020AC6238BD6FF00B00FBE710B5846A4D
:104150002046FFF74FFC2046BDE8104006F0C0BAED
:104160002DE9F0410C46164698460546002847D0F2
:10417000002A45D0002943DBEFF3108772B643686D
:104180000BB1FFF7FDF8204901346E600E68C5F8E9
:104190000C801EB9284606F094FE24E030463246D4
:1041A000002391685B1801D5116831B9A3420CDC7A
:1041B000116829B9E41A1449ECE710460A46F0E7F9
:1041C0008868034410460A46F0E791689642A3EBDC
:1041D0000103A4EB0304A1EB040191600BD10A4994
:1041E000284606F078FEAC6017F0010F00D162B6E9
:1041F0000020BDE8F081044A294606F072FEF2E78D
:104200006FF01500F5E700BF04AA402038B50D4C4B
:10421000236843B19A680025013A9A60236813B174
:104220009B68002B00DD38BD204606F07EFE23682B
:104230001BB19A6881680A449A6043684560C06807
:104240009847EBE704AA40203C30FFF799B838B50F
:10425000036C04466BB90023236438BD06F040FAB2
:10426000236C585904350028F8D1184606F038FA5E
:10427000F1E70025F4E770B5036C05460C4653F8EA
:10428000210006F02DFAA1002A6C0B1DD05842F82F
:1042900024000134286CC658002EF4D1012C03D11F
:1042A00006F01EFA2E6470BD083106F031FA06469B
:1042B000F8E700230246012110B5044618460BF02A
:1042C0005DF800232246062101200BF057F8002359
:1042D0002246062102200BF051F8002010BD38B50F
:1042E00000250446FEF7D6FAE36F1BB9BDE8384057
:1042F000FEF7E0BAEFF3108372B6E06F0268E26790
:10430000056013F0010F00D162B6037C043043F066
:104310000203037300F027FAE6E700000F4B10B525
:104320001B680446B3F93620002A0ADD1A7C037C98
:104330009A4206D20A4900F029F801230020237787
:104340000AE00649204600F021F802230028F5D0B3
:10435000032222772268137710BD00BFA89F402058
:104360009C9F402038B5436804465BB9036803222C
:1043700001251A772046044906F007FE0023284647
:10438000237738BD0025F5E7A89F402010B50B68BE
:10439000027C5BB11C7C944206D25A68C0E90032B0
:1043A0008AB95860086007E01B68F2E74A68036052
:1043B00022B94360C1E90000012010BD42601060D5
:1043C00048600020F9E710605860FAE738B5044605
:1043D000EFF3108572B6037F043B032B0CD800F07B
:1043E000E3F9042307212046238700F0C9F915F0DB
:1043F000010F00D162B638BD072104F06BFDF6E76E
:1044000010B5EFF3108472B604F094FE14F0010FAF
:1044100000D162B610BD70B50446EFF3108672B6D7
:10442000037F052B09D1856D2946FEF7A1FC2B885A
:1044300001331BB22B800023A3652046FEF7C2FC8C
:1044400016F0010F00D162B670BDF8B504460D46F6
:10445000EFF3108772B6037F052B0DD1866D3146C1
:10446000FEF786FC3388204601331BB233800023DD
:104470002587A36504F05EFE17F0010F00D162B638
:10448000F8BD000070B5284B00246020C3E900444B
:10449000264BC3E90044264BC3E90044254BC3E93E
:1044A0000044254BC3E9004406F022F9054648B113
:1044B00000F160062C75284618351C4906F001FDF0
:1044C000AE42F7D1602006F013F9044650B100F176
:1044D00060050226267520461834154906F0F1FCC1
:1044E000AC42F7D1402006F003F9044650B100F188
:1044F000400500262673204610340E4906F0E1FCE4
:10450000AC42F7D1402006F0F3F8044650B100F178
:1045100040050226267320461034074906F0D1FCD8
:10452000AC42F7D170BD00BF2CAA402024AA402085
:104530001CAA402014AA40200CAA402010B5EFF37A
:10454000108472B6034906F0BCFC14F0010F00D1D0
:1045500062B610BD2CAA40202DE9F0471546404A0E
:104560001F280746D2F800900E46D9F8088003D9D4
:104570006FF01500BDE8F087D9B93946404600F024
:1045800089F80446FDB996B13568012D32D12A4625
:1045900039464846FFF732FD05468DBB3CB1204603
:1045A00008F12C0106F0ABFC2046FFF7C7FF002006
:1045B000E0E7002BE1D10B68012BDED0FFF708FD0F
:1045C0000028DAD1D4E739464846FFF7F7FC30B186
:1045D00000230122C5E900230223AB60D3E72CB1FD
:1045E00063682B60A3686B60E368F6E7C5E9004485
:1045F000AC60C8E7002239464846FFF7FFFCCCE72D
:1046000084B9EFF3108972B6164806F08EFC0446A2
:1046100019F0010F00D162B650B108F12C010774F6
:1046200006F04FFC65607368A360B368E360BEE7A3
:10463000502006F05DF804460028E2D0EFF3108920
:1046400072B600F1500A20461434064906F039FCCF
:104650005445F8D119F0010F00D162B6D1E700BF7F
:10466000A89F40202CAA402037B5002283680192E1
:10467000EFF3108572B65C6B34B915F0010F00D101
:1046800062B6019803B030BD217901A806F00DFD96
:104690002468F1E738B50D46044640B1FEF7FAF854
:1046A000E46A14B1237CAB4203D1FEF703F9204640
:1046B00038BD2468F5E700000F4B10B51B6843B107
:1046C0000E4806F032FCA8B90D48BDE8104006F0CF
:1046D0002CBCEFF3108472B6084806F026FC14F0E8
:1046E000010F00D162B628B9182006F001F808B110
:1046F0000123037510BD00BFA41E402024AA402042
:104700001CAA4020037D10B553B9EFF3108472B694
:104710000A4906F0D6FB14F0010F00D162B610BDB5
:10472000022B04D1EFF3108472B60549F1E7012B97
:10473000F5D1BDE8104005F0D3BF00BF24AA40204A
:104740001CAA402008B53AB119B9FEF709F9404250
:1047500008BD00F037F8FAE711B9FEF735F9F6E7CA
:1047600000F034F8F3E708B528B1FEF743F9002864
:1047700003DA404208BD1620FCE70020FAE70000FB
:1047800038B50C46074B054653F8311003EBC4030C
:104790001B79DB0703D5FFF7F9FD2C7738BD06F051
:1047A000DEFBFAE714055400054B027F10B553F801
:1047B0003210044606F0E9FB0023237710BD00BF4A
:1047C000140554000A46002100F004B80A460021EE
:1047D00000F048B8204B2DE9F743804689461E6813
:1047E0001546002A35D0002833D0EFF3108772B673
:1047F00000F0A0F8044680B16A68184B9A4225D8A8
:1048000001AA2946484600F067F828B9019C002C07
:104810000BDC6FF0730400E0444217F0010F00D18D
:1048200062B6204603B0BDE8F0833C3600F038F8AD
:10483000214603460A4A3046FFF792FC4046FEF7FF
:104840008FF804463046FEF79BFDE6E76FF015044F
:10485000E3E76FF01504E4E7A89F4020FFC99A3B07
:104860007D48420070B504460D461646324629463C
:104870002046FFF7AFFF031DF8D070BD10B5EFF372
:10488000108472B6FFF724F828B1037F052B02D1FC
:104890007421FFF7DAFD14F0010F00D162B610BDEC
:1048A000054B186830B1037F032B01D1C0687047F6
:1048B0006FF00200704700BFA89F402002680B689D
:1048C0009A4204D306D840684B68C01A70474FF02C
:1048D000FF307047012070477FB50E466946154688
:1048E000FEF7ECFD044608BB69463046FFF7E6FFDD
:1048F000002805DA4FF0FF332B60204604B070BD6E
:10490000019B7468009AE41A3368002CA3EB02033D
:104910000394029304DA064A013B22440293039271
:10492000294602A806F04EFB0446E6E71624E4E713
:1049300000CA9A3B38B50E4B1D68B0B1EFF3108436
:1049400072B6028812B2002A0CDD0288013A12B255
:104950000280FEF7DFF90020A86514F0010F00D1F6
:1049600062B638BD6FF00A00F7E76FF01500F8E7A0
:10497000A89F402000F01AB838B50D4604462F21F4
:10498000284607F057FF00B1451C284606F0B8F945
:10499000031E08DB06F0C6F9C36823608368236240
:1049A000436823770023184638BD0000014800F013
:1049B00003B800BF5805402010B5044648B1FDF7C4
:1049C00069FF054B1A6822601C60FDF773FF002029
:1049D00010BD6FF01500FBE734AA402037B5044640
:1049E0000D46002001A911F0EDF8019B642B05D0C4
:1049F000642301A90020019311F0B2F800F012F82D
:104A00002946204600F04AF8044611F081F804498E
:104A1000224600F51A7007F07CFC012003B030BD7F
:104A200083A3520008B500F007F800214FF601708B
:104A3000BDE8084008F055BB73B5124E0024124D76
:104A400006203346114A12490095FCF7A9FD0123BF
:104A5000104A3146284600940AF088FEA0420EDA39
:104A6000FCF7F6FD0368094A03200B49CDE9006312
:104A70002B46FCF795FD4FF0FF3002B070BD20468D
:104A8000FBE700BFAAA35200EAA35200C8055400E6
:104A9000AFA35200F4A35200FBA3520070B5054629
:104AA00001200E4600F000F9044670B100F0C0F994
:104AB000204600F0C5F9334601212A46204600F081
:104AC00043FCE3690146204698476FF00B0070BD38
:104AD00000F52670704770B504460E461546B2B113
:104AE000D0F888323BB1D0F88C0207F01CFBD4F828
:104AF000880207F018FBD4F884322B60D4F8803297
:104B00006B60D4F88C32AB60D4F88832EB60002351
:104B1000C4F88062C4F8883270BD38B50446D0F855
:104B2000885210F0F5FF00F59C70854209D110F015
:104B3000EFFF00F59C7007F0F6FA0123C4F880320D
:104B400038BDD4F8880268B107F0EDFAD4F88802CD
:104B500007F050F94FF0FF33C4E9A0330023C4E954
:104B6000A233EDE7D4F880020028F3DB0128F1D06E
:104B700009F031FDEEE738B50D460446FFF7CDFFED
:104B80002B68C4F884326B68C4F88032AB68C4F810
:104B90008C32EB68C4F8883238BD000010B5D0F80C
:104BA000883204460BB1002010BD0949D0F88002BC
:104BB00007F0E4F8C4F8880230B1D4F88032C4F8C1
:104BC0008C02C4F88432EEE74FF0FF30ECE700BF10
:104BD000F6A852000EB417B50446FFF7DFFF58B928
:104BE00006AA0599D4F88C02019207F09FFB03B046
:104BF000BDE8104003B070474FF0FF30F7E70EB448
:104C000017B50446FFF7CAFF58B906AA0599D4F8A4
:104C10008802019207F08AFB03B0BDE8104003B0A0
:104C200070474FF0FF30F7E773B505460C46164660
:104C3000FFF7B4FFD8B92046D5F8883232460121B3
:104C400007F0EEF9041E0BDAD5F88062FCF700FDE0
:104C500003680320074A009333460749FCF7A0FC8A
:104C6000D5F8880207F05FFA204602B070BD4FF019
:104C7000FF34F9E7D505540025A4520010B50446C9
:104C8000FFF74BFFD4F8900208B105F029FD20464C
:104C9000BDE8104005F024BD0C4608B5FFF7EEFF57
:104CA0002046FCF743FC000038B505464FF446703B
:104CB00005F036FD044628B3134B144A0360144B29
:104CC00042614360134B144AC360144B826183609A
:104CD000134B80F87C520361124BC361022380F8AE
:104CE0002232C0F8843210F013FF012300F51A704D
:104CF000C4F88032C4F88C0210F00AFF00F59C70F2
:104D0000C4F88802204638BD7D4C4200D74A420094
:104D1000294C4200FF4B4200774B4200D54B4200EA
:104D2000D14A4200994C42002DE9F7430D46114605
:104D3000044600F0B7F80646F8B1236920469847C4
:104D40000746002864D034493046D4F8248207F05E
:104D50002CF8C4F82402B0B9A768FCF779FC006805
:104D600007F03EFD2D4B2A462D4900902046B847BE
:104D7000304600F0BBF8C4F824824FF0FF352846D7
:104D800003B0BDE8F0834FF0FF3510F0C1FE00F531
:104D90009C7007F0C8F9D4F8240207F0B9F8002392
:104DA000C4F828029842A4F82C320CDAD4F80890FF
:104DB000FCF74EFC006807F013FD1A4B00902046EC
:104DC000194A1749C847D4F824228021384607F0E9
:104DD000C7F898B194F822329A0704D4E3683A46A7
:104DE0001249204698473946204601F06FFC054697
:104DF0000028CAD094F82232DB07C6D4D4F82402A3
:104E000006F0F8FFC4F82482304600F06FF8B6E7E9
:104E10004FF0FF35F8E700BF06A8520050A452003B
:104E20004706540056A452005CA4520071EB520095
:104E3000014A0249FFF778BF61A4520070A45200F2
:104E400038B50446FDF726FD084B01221D781A707F
:104E5000FDF730FD45B9064A20460649FFF764FFD5
:104E6000022384F8223238BD0020FCE738AA402013
:104E700078A452001CE4520008B50249C368984760
:104E8000002008BDF8D6530008B50448FDF7CCFB58
:104E9000034B002808BF184608BD00BFEF055400AB
:104EA000E605540070B506460C4609B10B7823B9E7
:104EB0000C48BDE8704007F085BC2F2B01D1084697
:104EC000F7E7FFF7E1FF08490546204607F027FD11
:104ED00008B92846EDE7224629463046BDE870402D
:104EE00000F01CBCE60554001366530008B105F041
:104EF000F7BB704701292DE9F341064617464EDD01
:104F000055682949284607F00AFD0446002847D07D
:104F10002649284607F003FD044650BB2448FDF708
:104F200083FB244B002808BF184607F04BFC804643
:104F300007F0CAFD054670B13F68B568FCF788FB0D
:104F4000006807F04DFC1C4B00903A461B49304668
:104F5000A8474FF0FF35B8F1000F02D0404605F0EA
:104F6000BFFB14B12046FFF7C1FF284602B0BDE8E1
:104F7000F0811349284607F0D2FC044638B9FFF700
:104F800083FF07F01FFC804605F068FFD0E7294645
:104F90003046FFF787FF4FF000080446C8E70024BB
:104FA000A0460448C4E700BF88A45200EDA7520001
:104FB000E8055400E60554008AA452004706540050
:104FC0003FAB53002DE9F04F054687B016464FF032
:104FD00000094FF0010A0191614A3146019807F03A
:104FE00045FD431C0FD107F04EFD07684FF05C0BE9
:104FF00006EB8706019B9F421EDBBAF1000F40F0D3
:10500000AA8000200CE065280DD06E280ED045281F
:105010000FD0AB6828463268524998474FF0FF30AE
:1050200007B0BDE8F08F4FF00109D5E74FF0000A57
:10503000D2E74FF00009CFE707F025FD0368BB4238
:1050400003D0EB68284648499847B9F1000F6BD068
:105050003268144613780BB9237065E05C2B05D0D9
:10506000904604F8013B08F10102F3E7517802F1A0
:1050700001080D290AD80D290ED8DFE801F0510DDD
:105080000D0D0D0D0D5D5F0D636761655C295FD0D2
:10509000782908D0302918D0214601F802BB52786F
:1050A00062700C46DFE7D31C00220393CDF8088022
:1050B00018F8011F05920846049105F054FEDDE939
:1050C0000412D0B9DDF8088020E004324FF0000C63
:1050D00098F80110404608F1010830395FFA81FE66
:1050E000BEF1080F03D9804604F801CBBBE7904519
:1050F00001EBCC0CECD14046F5E7A1F130001201F8
:10510000092806D8039B02449845CFD104F8012B07
:10511000A9E70846029205F034FE029A5738F1E7F3
:10512000002384F800B06370EB68284656F8042B1F
:1051300001370E4998475DE70722E7E70822E5E7D0
:105140000C22E3E70A22E1E70D22DFE70B22DDE78D
:1051500004F8011B87E7EB6828460549984750E7A4
:1051600090A45200F406540024B0520071EB520097
:10517000588C53002DE9FF474F4B16460DF10C0894
:1051800001291A8804469B780D46ADF80C2088F852
:1051900002300DD10022494900F092FB0546E36838
:1051A0002046ED1746499847284604B0BDE8F087E9
:1051B000022901D0042969D17768384607F0D6FB67
:1051C00001280FD83668A568FCF742FA006807F096
:1051D00007FB3C4B32463C4900902046A8476FF005
:1051E0001505E1E797F80090B9F12D0F0ED0B9F150
:1051F0002B0F0BD03668A568FCF72AFA006807F079
:10520000EFFA304B324631490090E6E74FF0010AA1
:1052100017F8011F11F0DF0F23D10223033D012DE9
:1052200047D801339F0056F8230000F059FA05468D
:10523000043FF059FDF7F8F9F35948BB2A461946DF
:10524000204600F0DFFA051EAEDA6842A76836682D
:1052500007F0C6FA1E4B009032461E492046B8475A
:10526000A2E7404607F051FB0028C3D0A0EB08039B
:1052700094F82222B9F12B0F0AFA03F30ABF134361
:1052800022EA0303DBB284F82232C1E70123C5E737
:10529000294601221846FEF7CFF9051E84DAA768D1
:1052A0003668FCF7D5F9006807F09AFA0A4B0090C7
:1052B000D2E7002578E700BF956B5300794E420096
:1052C000588C5300AE68530028075400F40654006D
:1052D00094A4520047065400AEA45200F7B551689A
:1052E0000446154600F0C8FA002825DA831C23D0AE
:1052F0002F684042A66807F073FA104B3A460090B8
:1053000020460F49B0474FF0FF366868FEF706FAAF
:1053100000280EDA2D68A668FCF79AF9006807F0F5
:105320005FFA084B00902A4605492046B0474FF0E7
:10533000FF36304603B0F0BD0026E6E79FA45200DA
:1053400047065400ACA45200F7B5044617461D4664
:1053500041B1D0F88812364806F0ACFFD4F8880284
:1053600006F0E1FE012F28DC04F52676D4F8881239
:10537000304806F09FFFD4F8880206F0D4FE10F003
:10538000C7FB054610F0C4FB802100F59C7305F1B6
:105390000802304600F0ADFA013040D1D4F88C421A
:1053A000FCF756F9006807F01BFA234B00902046E3
:1053B000224A234906F0ADFF0AE06E6821493046D3
:1053C00007F0ADFA30B9E36820462A681E499847CD
:1053D000002013E01D49304607F0A1FA80B9022FE2
:1053E00006D0A968204603B0BDE8F04001F06EB9D0
:1053F000A3682A68164920469847012003B0F0BDEB
:10540000337829682D2B03D10A46A3681149F2E7A6
:105410003246204603B0BDE8F040FFF785BC314678
:10542000204601F053F9D4F8880206F07CFE9DE78F
:105430006C07540066075400E3A45200ECA4520029
:1054400047065400B5A45200B8A45200E0A452008C
:10545000280754004F0754002DE9F34704460D4632
:1054600010460121164609F01FFB071E1DDA052212
:105470003E49304607F0CEF928B9A76833462A4698
:105480003B492046B847A668FCF7E2F8006807F0F9
:10549000A7F9384B00904FF0FF3A2A46364920468C
:1054A000B047504602B0BDE8F0874FF4007005F0F9
:1054B0001FF9064658B9384609F08DF8A668FCF77A
:1054C000C7F8006807F08CF92C4B0090E3E74FF029
:1054D000000A21E007F084F9294B00902A4626496A
:1054E0002046C0472CE02DD04FF000086368A9EBA0
:1054F000080206EB080120469847002832DAFCF73C
:10550000A7F80068D4F80880042822D12A461D494B
:105510002046C0474FF0FF3A4FF4007231463846FC
:1055200009F0FCFAB0F10009DDDAFCF791F8006847
:10553000D4F808800428CDD12A4612492046C04715
:105540004FF0FF3A384609F046F8304605F0C8F803
:10555000A7E707F045F90C4B00902A46064920467C
:10556000C047D7E78044C145C0DCD5E7F8A4520066
:10557000FEA4520051A45200470654002FA5520029
:1055800065E45200F6055400171D53002DE9F74F4E
:1055900005468846104601211F4609F085FA061E79
:1055A00011DAAC684FF0FF3AFCF752F8006807F0E8
:1055B00017F91D4B009042461C492846A04750460B
:1055C00003B0BDE8F08F0C9B0024B94603F1FF3B0C
:1055D0003C705A464946304609F0A0FAB0F1000A3C
:1055E00016DAFCF735F80368042B19D0AC68FCF721
:1055F0002FF8006807F0F4F80D4B009042460B4975
:105600002846A0474FF0FF3A304608F0E4FFD6E7BF
:10561000FAD054444FF00003D144ABEB0A0B3B5596
:105620000C9B002BD5D1EDE751A452004706540046
:1056300065E452002DE9F341044610460F46154635
:10564000984605F0A4FB0646E8B905221749284606
:1056500007F0E0F828B9A6682B463A4614492046D8
:10566000B047A568FBF7F4FF006807F0B9F80090B1
:1056700020464FF0FF340F4B3A460F49A8472046CB
:1056800002B0BDE8F081304605F0AFFB024658B1EC
:10569000089B29462046C0470028F4DA4FF0FF3423
:1056A000304605F08FFBEAE70446F9E7F8A452001C
:1056B000FEA4520036A552004706540010B5044619
:1056C00007F054F9002123181A1B013A002A03DDC0
:1056D00013F8012C2F2A00D010BD03F8011DF3E7A9
:1056E000F8B50446207825462646013468B9284690
:1056F000002707F03BF92C18B44204D014F8010C31
:1057000005F027FB30B92846F8BD05F022FB00283C
:10571000E8D1ECE704F8017DEEE70000F7B50D46AF
:10572000044610491646284604F1200707F0F7F80A
:1057300078B933460C4A4FF40071384605F057FDEE
:105740000023384684F8203103B0BDE8F04007F06C
:1057500039B82B46054A4FF400713846009605F0DB
:1057600046FDEDE73B2D530032A3520030A352001B
:1057700070B5D0E9A4450E462544AC4212D2701E45
:10578000611E10F8012F11F8013F9A42F9D01AB9A1
:105790003D2B01D1204670BD204607F0E7F80130CF
:1057A0000444EAE70024F5E770B5D0E9A4360546DD
:1057B0000C468B421E4416D88E4214D9084607F078
:1057C000D5F80130631E0444321B002A06DCD5F8EC
:1057D00094321B1A0020C5F8943270BD14F8012BC6
:1057E00003F8012FF0E74FF0FF30F6E708B5FFF7B9
:1057F000BFFF034618B13D2107F087F8431C184648
:1058000008BD0000F8B5D0F8903205460E461746A0
:1058100033B1FFF7ADFF014610B12846FFF7C4FFD3
:10582000304607F0A3F80446384607F09FF80444D2
:10583000D5F890020234B0B1D5F894321C44214618
:1058400004F066FF024610B96FF00B00F8BDD5F802
:10585000943218443B460749C5E9A424324605F072
:10586000A2FC0020F2E7204604F042FF0028EBD023
:105870000246EFE77DA3520010B5044698B1FFF74A
:1058800077FF014678B12046FFF78EFFD4E9A401E7
:1058900000290CDC20B104F023FF0023C4F890326F
:1058A0000023C4F89432FDF705F8002010BD04F081
:1058B0002FFF10B1C4F89002F5E76FF00B00F5E789
:1058C0002DE9F041D0E9A44605460F46904626440E
:1058D000B44202D30020BDE8F0812246414628466A
:1058E000B8470028F7D1204607F040F801300444BB
:1058F000EEE75B68526800F02FB8006909F00FBC52
:1059000013B504468DF8071001220DF10701206937
:1059100009F005FC002802DBF6D002B010BDFBF751
:1059200097FE0368042BF7E713B5044601220DF137
:105930000701E06809F0F2F8002809D003DB9DF8C0
:10594000070002B010BDFBF783FE0368042BEDD007
:105950004FF0FF30F5E7000010B586B0074C049219
:10596000074A01940292074A059303920A460146A8
:1059700001A800F009F806B010BD00BF2959420087
:1059800001594200FB584200012A2DE9F047064622
:105990000F46914604DC00240C702046BDE8F087D9
:1059A0000025836803222C4998474FF0000833688C
:1059B00030469847431C04460BD1002DEDDD0023F3
:1059C0002C467B55E9E74FF00108F0E74546D04605
:1059D000EDE7B8F1000F09D05B28E6D1B8F1020875
:1059E00018BF4FF001084FEA4808E0E71B28EAD04B
:1059F00012DC0A2812D00D2810D0082817D1002D4B
:105A0000D5DD736830460821013D9847B36803220D
:105A1000114930469847CAE77F28EFE76C1C0A21F6
:105A20000023304679553B5573689847B5E7E0B297
:105A300005F086F982460028B9D17C5505F10108A8
:105A4000023573682146304698474D45BEDB4446D3
:105A500007F808A0A1E700BFF305540090F82F2233
:105A60000346033200EBC20292F8240280090128A7
:105A70000CD1002081F0010183F8210292F8243238
:105A800061F3000382F8243200207047022803D11A
:105A9000002083F82102F1E793F830221A4492F8AB
:105AA0003102800901280CD1002083F8210292F8EC
:105AB0003132C3F38000414061F3000382F8313298
:105AC000E2E7484283F821127047024610B50023EE
:105AD000104612F8014B5C2C02D183F00103F7E76A
