:020000040040BA
:10000000DAD74020C5014000690140006901400085
:100010006901400069014000690140006901400038
:100020006901400069014000690140006901400028
:100030006901400069014000690140006901400018
:100040006901400069014000690140006901400008
:1000500069014000690140006901400069014000F8
:1000600069014000690140006901400069014000E8
:1000700069014000690140006901400069014000D8
:1000800069014000690140006901400069014000C8
:1000900069014000690140006901400069014000B8
:1000A00069014000690140006901400069014000A8
:1000B0006901400069014000690140006901400098
:1000C0006901400069014000690140006901400088
:1000D0006901400069014000690140006901400078
:1000E0006901400069014000690140006901400068
:1000F0006901400069014000690140006901400058
:100100006901400069014000690140006901400047
:100110006901400069014000690140006901400037
:100120006901400069014000690140006901400027
:100130006901400069014000690140006901400017
:100140006901400069014000690140006901400007
:1001500069014000690140006901400069014000F7
:100160006901400069014000EFF305801EF0040FB3
:1001700002D0EFF309818D466A4602F16802EFF37F
:1001800010831EF0100F0CBF2DED108A90B02DE9DA
:10019000FC4F6946DFF828D000F0CCFCB0E8FC4FFB
:1001A0001EF0100F0CBFB0EC108A40301EF0040F90
:1001B0000CBF80F3088880F3098883F310887047A8
:1001C0005812402008B5224A0021224B934231D3D5
:1001D000214B224A22498B422FD3224B224A2349C8
:1001E0008B422FD300F058F800F0BCFC00F0D0F8A0
:1001F000BFF34F8FBFF36F8F4FF0E023D3F8902FF3
:1002000022F00102C3F8902FD3F8942F22F00102BC
:10021000C3F8942FBFF34F8FBFF36F8FF3F0E2FA61
:1002200000F0FCFB00F00CFC00F01EFC00F0C6FA35
:1002300002F062FA43F8041BC8E752F8040B43F8D3
:10024000040BC8E752F8040B43F8040BC8E700BFDF
:10025000ECD44020580A40200000402088B95500C6
:10026000580A4020580A4020E0C35500580A402050
:1002700082B00023074A0193D2F86836034202D1C4
:10028000019B013301D102B07047019B01330193FF
:10029000F2E700BF00000E4007B5304B4FF00422DC
:1002A000C3F8002C03F580534FF40042C3F85428E0
:1002B000C3F80429D3F8242812F0800230D0274A4A
:1002C000D2F82036D90139D524494FF48030244B57
:1002D000C1F82036FFF7CCFFD1F83036082023F0E4
:1002E000030343F00103C1F83036FFF7C1FF1D4B94
:1002F0000220C1F82836FFF7BBFF00230820C1F811
:10030000303440F20113C1F83036FFF7B1FF4FF43B
:100310008173C1F8303603B05DF804EBFFF7A8BF76
:100320001149C3F810180192D3F824281206C6D434
:10033000019A0132C3D0019A0132F4E70B4BC2F8A3
:1003400020364FF47A730093D2F86836DB07BBD4BB
:10035000009B013B002B0093F6DCB5E700000E404C
:100360000A3E3701013F1820080000A50A3E370069
:10037000064B20224020C3F804260122C3F8382669
:100380004FF47102C3F81C26FFF772BF00000E4045
:1003900008B58022244B2548C3F810264FF48072FC
:1003A000C3F810264FF48052C3F800274FF4804260
:1003B000C3F810264FF40042C3F8102600F05CFA90
:1003C0001B4800F059FA1B4800F056FA1A4800F092
:1003D00053FA1A4800F050FA194800F04DFA19483B
:1003E00000F04AFA184800F047FA184A1848D2F8BC
:1003F000143143F01003C2F8143100F03DFA1548EF
:1004000000F03AFA144800F037FA144BAC221A60A4
:100410004FF0FF32DA604FF40C625A60104A1A62F1
:1004200050221A6008BD00BF00000E4009006000A5
:100430000A0060000500A0000600A0007900A000EE
:100440007A00A000150060002400C0000080084071
:100450006F00800070008000730080000080024008
:1004600051000700EFF3108372B611B1426F1269A9
:100470000A60426F0349D16013F0010F00D162B6E8
:10048000704700BFE7E7083F006EAC220021436FD2
:100490001A60426F536823F00F035360FFF7E2BF07
:1004A00038B5046EFFF7F0FF94F8832094F8853098
:1004B000053A616F5B00042A36D8DFE802F00503D5
:1004C0002A352D0043F0400394F88220012A2ED1D2
:1004D00043F4007394F88420524202F40052134310
:1004E0004B60A26F1C4B1001D50092011344B3FB6B
:1004F000F0F3B3F5002F4FEAD3011DD203F0070349
:1005000041EA0341636F502200201962636F1A6051
:1005100038BD43F08003D7E721F400700F4A9042C2
:1005200002D043F40033CFE743F0C003CCE7022A04
:1005300018BF43F40063CDE7094B2B44DB00B3FB4A
:10054000F0F3606FD90803F00703426822F030022D
:1005500042F010024260D3E7008C864700080E404C
:10056000301A1E01036EDA6F0A600022DA675B6FD1
:100570009869C0B27047036E01225B6F09B19A603F
:100580007047DA607047036E5B6F586900F00100D6
:100590007047036E5B6FD9617047036E5B6F58697C
:1005A000C0F340007047036E5B6F5869C0F3402092
:1005B000704710B5036EEFF3108472B602225B6FC2
:1005C00039B19A6001F0D5FC14F0010F00D162B688
:1005D00010BDDA60F8E70000F7B5B1F5817F8368F8
:1005E00014464FF000065F6943D040F2371399423A
:1005F00000F0818040F20113994240F09B803D6EF3
:10060000002A38D095F882201AB3511E4A424A4136
:1006100053024FF4807213432046A36095F8842060
:1006200043EA8213A36095F88520002A0CBF0022BC
:100630004FF020421343A360A96F00F0D7FF95F855
:100640008330053B042B10D8DFE803F009050B0FBE
:100650000F001346DFE7A36843F01003A3600020F8
:1006600045E0A36843F02003F8E7A36843F03003B4
:10067000F4E73D6E12B96FF0150038E0104600F057
:10068000D1FFA36803F03002202A32D005D8002A17
:100690000CBF05260626002105E0302A0ABF0021EE
:1006A0006FF01501082613F4807204D013F4007F54
:1006B0000CBF022201220029DDD113F0204F85F862
:1006C0008220C3F3801201A914BF0123002385F8FF
:1006D000842085F88530A867284685F88360FFF771
:1006E000C1FE3846FFF7DCFE6B6F019A9A6003B0DB
:1006F000F0BD0726CFE73D6EE4B26A6F566826F07C
:100700000F0343F00A0353604FF480726B6F1A605B
:100710006B6F9C65094CA86FB4FBF0F000F096FF7E
:100720006B6F5A695204F6D54FF480721A606B6F82
:100730005E6094E76FF01800D9E700BF00127A00FE
:1007400010B5046E94F8800000F06EFB002294F85F
:1007500080001146BDE8104002F086B838B5056E3D
:100760000246064995F8800002F07EF8044618B962
:1007700095F8800000F072FB204638BD81074000EC
:10078000F8B51446176E4FF480767A6F5369FB679D
:1007900015691D4015F0010303D0204601F01FFC30
:1007A0000123AA0703D5204601F0E3FB0123013E04
:1007B00001D0002BE9D10020F8BD000010B5104C8D
:1007C0000021206EFFF74EFE0E4B0021186EFFF742
:1007D00049FE0D4B0021186EFFF744FE0B4B002124
:1007E000186EFFF73FFE0A4B0021186EFFF73AFE26
:1007F000012320462371BDE81040FFF751BE00BF22
:10080000FC004020F0034020F4024020F80140208A
:100810000000402010B50D4C0D48214601F010FAA3
:1008200021460C4801F00CFA0B490C4801F008FA7B
:100830000B490C4801F004FA0B490C4801F000FA8E
:100840000B490C48BDE8104001F0FAB9FC0040200B
:100850003C62500049625000F00340205462500056
:10086000F40240205F625000F80140206A625000AC
:100870000000402075625000C0F34212534B00F05C
:100880001F0153F82230012230B58A40EFF3108463
:1008900072B64F49C3F8E41000F46001B1F5800F5F
:1008A0003FD004D8C5035A6418D41A6619E0B1F5CC
:1008B000200F5AD00FD8B1F5C00F56D0B1F5000FA8
:1008C00053D06FF01500434AC3F8E42014F0010F31
:1008D00000D162B630BDB1F5400FF1E7C3F890200A
:1008E0005A6610F4003515D01A66C3F894204003F8
:1008F00013D51A62D3F80011D04385B11143C3F860
:100900000011D3F818110140C3F818115A611A6088
:100910000020D8E7C3F89020E9E75A62EAE70140EF
:10092000EDE7C1035A6417D5C3F890205A668503D2
:1009300014D51A66C3F89420010312D51A65C504AC
:1009400011D51A63D3F8181100054CBF1143914318
:10095000C3F818111A61DAE71A66E8E7C3F89020BD
:10096000EAE75A65EBE75A63ECE7C5035A6423D517
:10097000C3F890205A66800320D51A66C3F89420E5
:10098000D3F81801B1F5C00F6FEA020520EA0200A2
:10099000C3F81801186F02D0B1F5200F11D128400B
:1009A000B1F5C00F1867586F02D0B1F5000F0AD12A
:1009B000284058675A60ABE71A66DCE7C3F8902016
:1009C000DEE71043ECE71043F3E700BF38BD51000A
:1009D000004F4950014F4950C0F34212054B00F0FF
:1009E0001F0053F822200123834009B1136370478D
:1009F0005363704738BD5100C0F34212064B00F0FC
:100A00001F0053F82230DA6B01238340134214BFD6
:100A100001200020704700BF38BD510008B5BFF36A
:100A20005F8F4FF082724FF000514FF0004000F0A6
:100A300000F9012200211046BDE8084000F0EAB8A4
:100A4000BFF34F8FBFF36F8F4FF0E0230022C3F847
:100A5000502FD3F8142D42F40032C3F8142DBFF3F5
:100A60004F8FBFF36F8F70474FF0E023F0B5D3F88F
:100A7000802D02F00704C2F34E31C2F3C9020434E0
:100A8000B2FA82F505F01F05BFF34F8F104601FA49
:100A900004F700FA05F6013846EA0706C3F8606F66
:100AA000F7D20139F2D2BFF34F8FD3F89C2F42F027
:100AB0000402C3F89C2FD3F8142D42F48032C3F8FB
:100AC000142DBFF34F8FBFF36F8FF0BD4FF0E022B7
:100AD00010B5D2F8843D43F00104C2F8844DD2F839
:100AE000804DC2F8843D012304F007040434A34080
:100AF000BFF34F8F5C1E044204D05C422040C2F81A
:100B0000700F18444FF0E024C2188A420AD9884274
:100B100003D24FF0E023C3F8700FBFF34F8FBFF342
:100B20006F8F10BDC4F85C0F1046EDE77047FFF7FC
:100B3000CDBF000070B50A4D06460C462B680BB9B8
:100B40001C462960304600F029FA2968304601F039
:100B5000ABFE14B900232C682B60204670BD00BF8B
:100B60005C1E4020EFF3148343F0040383F31488E6
:100B70004FF0E023D3F8342F22F04042C3F8342F53
:100B8000D3F8882D42F47002C3F8882D7047000016
:100B9000024B1878421C1A70704700BF581E402044
:100BA000202810B50CD906230121202B0AD001FAE8
:100BB00003F25C1C824201D3D8B210BD2346F4E795
:100BC0000520FAE71846F8E7072A1CD901231F2A4F
:100BD00003FA02F3A2F1030203F1FF3300EA030078
:100BE00094BFDB106FF06043014420EA0300194416
:100BF00021EA030120FA02F3D140044A505C044A7E
:100C0000D35C184370470020704700BF55BD5100AA
:100C10004CBD510040B10029C2F1000214BF0320B5
:100C2000012002F0040210434FF0E023C3F8940DBA
:100C300070472DE9F04780464FF0FF3A1446FFF722
:100C4000A7FF08EB010628F01F0705468946F01BA1
:100C5000FFF7A6FF0AFA00FA0AEA070A4FF0E027B0
:100C6000A6EB0A00FFF79CFFC7F8985D45EA0A0566
:100C700006460246494645F010054046013EC7F883
:100C80009C5DFFF7A1FF000244EA460480B20443E2
:100C900044F00104C7F8A04DBDE8F0870F2810B557
:100CA0001DDDA0F110041F2C09DC03F1604303F5E6
:100CB00061430B600123A3400020136010BD3F2C53
:100CC00006DC154C30381C440C6001238340F3E7EC
:100CD000492C1EDC114C50381C440C60F5E7104BBD
:100CE00004380B600B2814D8DFE800F006090C1359
:100CF000131313131313130F4FF48033DCE74FF464
:100D00000033D9E74FF48023D6E7064B0B6001236D
:100D1000D2E74FF0FF30D1E704E100E008E100E066
:100D200024ED00E010E000E008B5EFF3108372B6A8
:100D300004490320044A00F04BFCDE21034800F084
:100D400007FC00BF806250009CBD5100A1625000B2
:100D500008B5EFF3108372B604490320044A00F08B
:100D600037FCD621034800F0F3FB00BFB06250000F
:100D70008DBD5100A162500008B5EFF3108372B62B
:100D800004490320044A00F023FCCE21034800F06C
:100D9000DFFB00BFD562500082BD5100A162500050
:100DA00008B5EFF3108372B64FF0E0230549032036
:100DB000054AD3F8283D00F00BFCC621034800F09B
:100DC000C7FB00BFF362500073BD5100A162500029
:100DD00008B5EFF3108372B64FF0E0230549032006
:100DE000054AD3F8283D00F0F3FBBE21034800F08C
:100DF000AFFB00BF1C63500066BD5100A1625000F4
:100E000008B5EFF3108372B604490320044A00F0DA
:100E1000DFFBB621034800F09BFB00BF436350009B
:100E20005EBD5100A162500013B5802301AA69463E
:100E30000446FFF733FF58B90F2CDDE9003102DD1E
:100E4000196002B010BD1A6822EA01021A60F8E7C0
:100E5000204602B0BDE8104000F0A4B913B500234D
:100E600001AA69460446FFF719FF50B90F2CDDE9C6
:100E7000003102DD196002B010BD1A680A431A6021
:100E8000F9E7204602B0BDE8104000F07DB900004F
:100E90004FF0E02334494FF0FF3010B55B6803F0AA
:100EA0000F035A1C03F1382361339B0041F8040BF4
:100EB0009942FBD14FF0E0232C49C3F8081D4FF0B5
:100EC0008031C3F8181DC3F81C1DC3F8201D530141
:100ED000274A03F1604303F5644342F8041B93423D
:100EE000FBD10024234B24490B2022461C6001F037
:100EF000BBFC22462149032001F0B6FC22462049D2
:100F0000042001F0B1FC0420FFF7A8FF22461D4990
:100F1000022001F0A9FC22461B49052001F0A4FC97
:100F200022461A49062001F09FFC224618490E204D
:100F300001F09AFC224617490C2001F095FC22464C
:100F40001549204601F090FC4FF0E022D2F8FC3D1C
:100F500023F48063C2F8FC3D00F090F8C02383F3D3
:100F6000118862B610BD00BF80E100E000004000C3
:100F700000E400E05C1E4020ED124000C111400082
:100F8000D1124000010E4000D10D4000A10D4000E3
:100F9000790D4000510D4000290D400070470000C0
:100FA00059281FDD792805DC104B5A380B6010607A
:100FB00000207047992803DC0D4B7A380B60F6E768
:100FC000B92803DC0B4B9A380B60F0E7D92803DC17
:100FD000094BBA380B60EAE7F92803DC074BDA382B
:100FE0000B60E4E76FF01500704700BF000E0E4085
:100FF00000100E4000120E4000140E4000160E406D
:10100000F8B5C46C0D46836C174601261C400CB91C
:101010002046F8BD344205D024EA06043946284665
:1010200001F042FC76000135F1E700000A46024873
:10103000DA21FFF7E5BF00BF00160E400A4602485E
:10104000BA21FFF7DDBF00BF00140E400A46024878
:101050009A21FFF7D5BF00BF00120E400A46024892
:101060007A21FFF7CDBF00BF00100E400A460248AC
:101070005A21FFF7C5BF00BF000E0E4070B54FF4F8
:101080008063294D4FF0FF360022C5F810361A2034
:10109000D5F84C3E2549C5F8446E01F0E5FB1A2011
:1010A000234CFFF7DBFE4FF40063002221491B2095
:1010B000C5F81036E36C666401F0D6FB1B20FFF721
:1010C000CDFE4FF4805300221B49C5F810361C207A
:1010D000D4F84C32C4F8446201F0C6FB1C20FFF780
:1010E000BDFE4FF4803300221449C5F8103620208D
:1010F000D4F84C34C4F8446401F0B6FB2020FFF768
:10110000ADFE4FF4003300220D49C5F81036212002
:10111000D4F84C36C4F8446601F0A6FB2120BDE8A3
:101120007040FFF79BBE00BF00000E406D104000F6
:1011300000100E405D1040004D1040003D1040007A
:101140002D10400000F01F02012310F4004F03FA9D
:1011500002F30C4A12D04104C2F8B03E08D5C2F8DE
:10116000C43E10F4005F074A05D0C2F8D43E704771
:10117000C2F8C03EF5E7C2F8D03E7047C2F8B43EB0
:10118000704700BF00000E4007B501AA6946FFF78F
:1011900007FF20B9019A01239340009A136403B01A
:1011A0005DF804FB07B501AA6946FFF7F9FE20B90F
:1011B000019A01239340009A536403B05DF804FB45
:1011C0004FF0E023F0B5D3F82C4D85B0D3F8287D4F
:1011D0000646D1F884300D46DFF8ECE0A3F1020CAE
:1011E000F4450DD3DFF8E4E0F44509D233F8023CCE
:1011F000B3F55F4F04D105B0BDE8F04000F076B81C
:10120000630004D5264A0020264900F0E1F9244A6B
:101210000020254900F0DCF93346214A002023490B
:10122000009500F0D5F9EFF31183EFF31082EFF39F
:101230000581EFF31480D2B2DBB20092184ACDE9F7
:1012400001101B49002000F0C3F94FF0E0230020FB
:10125000D3F8302DD3F8381DD3F83C3DCDE900420A
:10126000CDE902130E4A3B46124900F0B1F90020C5
:101270000B4A114900F0ACF914F002000BD0084AF7
:1012800000200E4900F0A4F9EFF3108372B6AD21EF
:101290000B4800F05DF9002CF6DA014A0949F1E744
:1012A000A9BD51005E6350007A6350009463500002
:1012B000AB635000E6635000236450003B64500071
:1012C00073645000616450000000400080B9550014
:1012D00008B54FF0E023D3F8283DEFF3108372B642
:1012E0006521014800F034F98B645000CA6E012A70
:1012F00008B508D0022A0AD01AB9D422086F00F023
:101300001FF8002008BD0A6F034B1A60F9E70A6F47
:1013100011604A6FF8E700BF5C1E4020000000002B
:1013200018DF88DFCD06CD767CD30CD3D982D912D5
:101330002C00050A0F14191E232800BFAFF30080EC
:1013400000B501B400F004F801BC00BDAFF30080AB
:1013500000B5042A60DB00F0030E61F3830E7A4BC4
:10136000D3E80EF0AFF30080AFF30080AFF300805E
:1013700011F8013B00F8013BA2F1010211F8013B19
:1013800000F8013BA2F1010211F8013B00F8013B1A
:10139000A2F101022DE9F01F282A07DBB1E8F81FAE
:1013A000A0E8F81FA2F12802282AF7DADFF89CE16A
:1013B0004FEA920BDEE80BF051F8043B40F8043B97
:1013C00026E0B1E81800A0E8180021E0B1E83800F4
:1013D000A0E838001CE0B1E87800A0E8780017E049
:1013E000B1E8F800A0E8F80012E0B1E8F801A0E8E0
:1013F000F8010DE0B1E8F803A0E8F80308E0B1E86F
:10140000F807A0E8F80703E0B1E8F80FA0E8F80F44
:10141000BDE8F01F02F00302002A08BF00BD11F86A
:10142000013B00F8013B013A08BF00BD11F8013B48
:1014300000F8013B013A08BF00BD11F8013B00F87C
:10144000013B00BDAFF30080AFF30080AFF300803D
:1014500011F8013B00F8013BA2F1010211F8013B38
:1014600000F8013BA2F1010211F8013B00F8013B39
:10147000A2F10102282A35DB2DE9F01FB1E8F81F9F
:1014800020F8023B4FEA134364F31F434FEA14442E
:1014900065F31F444FEA154566F31F454FEA1646AC
:1014A00067F31F464FEA174768F31F474FEA18488C
:1014B00069F31F484FEA19496AF31F494FEA1A4A6C
:1014C0006BF31F4A4FEA1B4B6CF31F4BA0E8F80F5E
:1014D0004FEA1C4C20F802CBA2F12802282ACDDAD0
:1014E000BDE8F01F042A97DB51F8043B20F8023BCB
:1014F0004FEA134320F8023BA2F10402BAE711F8C5
:10150000013B00F8013BA2F1010211F8013B00F898
:10151000013BA2F1010211F8013B00F8013BA2F1ED
:101520000102042AFFF678AF51F8043B00F8013BB2
:101530004FEA132320F8023B4FEA134300F8013B24
:10154000A2F10402EDE70000201340003013400038
:1015500008B507F047FC012000F000F8044608B584
:1015600000F003F8204601F02DFFF8B5064600F024
:101570005BF80C22C46B0027651E02FB0404002DDF
:1015800000DAF8BDD4E90D23E16BC4E90E7713B19D
:10159000012A03D19847013D0C3CF0E7022A02D111
:1015A00030469847F7E7032AF5D108469847F2E70F
:1015B000064B07B51B780341DB0703D5019201AA4F
:1015C00000F04CFD03B05DF804FB00BFEC044020CC
:1015D0000EB403B503AA52F8041B0192FFF7E8FF0B
:1015E00002B05DF804EB03B07047000030B50C4B5F
:1015F0000025D3E900428A4208D0A14206D0013535
:1016000008331F2DF5D10C464FF480528368C46116
:1016100023F4805323F00F0313438360002030BD75
:10162000B8BD5100C069704708B500F002F8006805
:1016300008BD1FB5002001A901F0ACF90028ACBF1E
:101640000298002005B05DF804FB000007B578B1F2
:10165000094AB0FBF2F302FB13006A4600934FF411
:101660007A735843002301901946184601F05CFC38
:1016700003B05DF804FB00BF40420F0008B5FFF760
:10168000D8FF08B1143008BD0048FCE7601E4020B8
:1016900070B504460D46E36D2046DB6A9847002886
:1016A000F9D0E36D294620465B6ABDE870401847D3
:1016B0002DE9F84F858F0446B0F940300F462DB222
:1016C00090464FF001090135AB42D8BF0025E38FAA
:1016D0001BB2AB4208D0A38F2DB2626C00201BB2AC
:1016E000D754A587BDE8F88FB8F1000F2BD0EFF3E2
:1016F000108A72B6E38F1BB2AB421FD1E37803F0BE
:10170000FF0BEBB9E36D0121204684F801909B6A41
:10171000984704F11C0001F05FF9E36D0646594655
:101720009B6A204698471AF0010F00D162B6E37811
:1017300063B9002ECBDA6FF00300D3E70026F2E79F
:101740006FF07F06EFE76FF00A00CBE76FF07F00E6
:10175000C8E72DE9F047836807460E4690465C6966
:1017600004F14809484601F037F9051E1EDB002543
:10177000454504D2E378E3B1002D00F09380E36D9A
:10178000012120469B699847B4F85020B4F85230A4
:1017900012B21BB29A4206D1E36D1B6A1BB1002242
:1017A000204611469847484601F060F92846BDE8B2
:1017B000F087B4F85230B4F8502019B212B28A420D
:1017C0001FD0A26D0133525C1BB2B4F95410994280
:1017D000D8BF0023A4F85230A36813F4E07F05D0EB
:1017E0000A2A07D113F0400F18BF0D22013506F861
:1017F000012BBDE70D2AF9D113F4807F18BF0A220F
:10180000F4E7002DBBDCBB68002B4ED0396811F02B
:1018100040014DD1EFF3108A72B6E36D20469B690B
:101820009847B4F85020B4F8523012B21BB29A4222
:101830002ED1E36D012120469B699847B4F85020D2
:10184000B4F8523012B21BB29A4204D01AF0010F0F
:1018500000D162B68CE7E37893B9012304F1240048
:10186000A37001F0B9F81AF0010F00D162B6002898
:1018700009DA002D83D1E378A3B96FF003057EE781
:101880006FF07F00EFE7E378002B3FF471AFF0E7F4
:101890001AF0010F00D162B6E36D012120469B6969
:1018A000984765E76FF07F0569E76FF0500566E7D9
:1018B0006FF00A0563E72DE9F04183685E6906F180
:1018C0001405284601F088F8041E1BDBF378002B72
:1018D00030D13378013313F0FF072ED0012F27D1F9
:1018E000EFF3108872B633797BB9F36D30461B681D
:1018F0009847041E09DA18F0010F00D162B6284695
:1019000001F0B4F82046BDE8F081F36D30469B68E5
:101910009847041EF36D03DA5B6830469847EAE7A0
:101920009B6901213046984718F0010F00D162B63B
:101930003770E4E76FF07F04E1E76FF01704DEE74C
:10194000F7B50E4600F1600500F1700455F8047F0C
:10195000B7B17B68BA6843F0180333401343BB60E8
:1019600073B1094A06200949FFF732FE01A9386917
:1019700009F016FC019B002B02DC386901F076F8B7
:10198000A542E3D103B0F0BDB0BE5100A264500047
:101990002DE9F84383680E4615465C69002C63D038
:1019A000002961D004F12C08404601F015F8071E0B
:1019B0004ADB002D52D004F16002002352F8045F8C
:1019C000002D37D104EB8302193304F1340904EB01
:1019D000830356664846736101F032F8A38FB4F969
:1019E00040201BB201339A42D8BF0023E28F12B2CB
:1019F0009A422CD1484604F1480901F037F848468C
:101A000001F01EF8B4F85020B4F85230484612B233
:101A10001BB29A421EBF736803F001031D4301F01D
:101A200025F8E378BBB145F0180529462046FFF7B5
:101A300087FF06E00133042BC0D100236FF00F07AE
:101A40007361404601F012F83846BDE8F8837568C6
:101A500005F00405CEE7002DF3D0E6E77369002B0F
:101A6000EFD01D607561ECE76FF01207ECE7000046
:101A70002DE9F047836880460F4616465D69424B64
:101A80001B6823B1EB78ABB16FF07F041EE000F070
:101A900075FF0028F6D105F1340A504600F09CFF8E
:101AA000041E13DBEB7803F0FF0153B3504600F044
:101AB000DDFFE9E7EFF3108472B607EB0608B845DF
:101AC00007D114F0010F00D162B634462046BDE8BC
:101AD000F087EB6817F8011BD80703D50D2905D14E
:101AE0001A0705D42846FFF7D3FDE8E70A29F9D1FC
:101AF00013F0240F03D00D212846FFF7C9FD0A215A
:101B0000F0E7D8F80030B146284683F04008EB6D86
:101B1000C8F380189B6A9847B9F1000F01D1344689
:101B200023E0EB6817F8011BD80703D50D290AD16C
:101B30001A070AD442462846FFF7BAFD041E10DBF6
:101B400009F1FF39E8E70A29F4D113F0240F01D194
:101B50000A21EFE742460D212846FFF7A9FD041EA2
:101B6000F6DAB14501D2A6EB0904AA8FEB8F12B2C7
:101B70001BB29A4204D0EB6D012128469B6A98471C
:101B8000504600F073FFA1E75C1E40202DE9F047AE
:101B900000F1340704460E46384600F01DFF051ECE
:101BA00017DBEFF3108972B6E37803F0FF0563B338
:101BB000A38F6FF07F05E38719F0010F00D162B6A4
:101BC000DFF87880002DD8F800902DDA384600F044
:101BD0004DFF2846BDE8F087E36D0121204684F8DB
:101BE00001A09B6A9847404600F0F6FEE36D05466B
:101BF00000219B6A20469847002DDDDBA28FE38FF2
:101C000012B21BB29A42E7D1D6E74FF0010A04F1B3
:101C10001C08F3E74FF47A7001F0B8F9D8F80030F7
:101C2000A3EB0903B34206D2E36D20461B6B984732
:101C30000028EFD0CAE76FF07305CAE7709E402016
:101C40002DE9F0410B7905460C462BB10B6943F0A9
:101C500001030B610523CB600122002104F1340054
:101C600004F11C0709F081FA0122002104F1480067
:101C700009F07BFA0122002104F1140009F075FA41
:101C80000022384604F12406114609F06EFA0022BB
:101C90003046114609F069FA0122002104F12C00B6
:101CA00009F063FA0021384601F0D3F800213046EC
:101CB00001F0CFF8234628464FF4DB720249BDE815
:101CC000F04100F08FBB00BFC0BE510010B504460C
:101CD0000121FFF735FEA3783BB1002304F1240076
:101CE000A370BDE8104000F0C1BE10BD10B50446A1
:101CF0000421FFF725FE63783BB1002304F11C00AB
:101D00006370BDE8104000F0B1BE10BD70B58368CF
:101D10000E4615465C69E36D1B6953BB40F2073301
:101D20009E422DD0B6F5427F1BDAB6F58A7F76D07B
:101D300040F215139E4200F08F806FF0180040F2C1
:101D400001139E4200F09480B6F5817F30D1002DC2
:101D500000F096802B68A3606B68E360EB682361FA
:101D600025E030D040F209339E4240D06FF0180099
:101D70001EE0984710F1190FD0D00028DFD017E0EF
:101D8000EFF3108072B6B4F85220B4F8503012B2AB
:101D90001BB29A420DDCB4F85030B4F852201BB29A
:101DA00012B29B1A10F0010F00D162B62B60002016
:101DB00070BDB4F85220B4F8501012B2B4F95430D7
:101DC00009B2521AEDE7EFF3108072B6E28FA38FDB
:101DD00012B21BB29A4203DCA38FE28F1BB2DFE781
:101DE000E28FA18F12B2B4F9403009B2E9E7EFF304
:101DF000108072B6A28FE38F12B21BB29A4206DA3B
:101E0000E38FA28F1BB212B29B1A013BCAE7A28FCB
:101E1000E18F12B2B4F9403009B2521AF4E7EFF38D
:101E2000108672B635F0020209D1B4F85030A4F829
:101E30005230E36D1B6A13B1114620469847013DAD
:101E4000012D04D8A38F2046E387FFF74FFF16F03C
:101E5000010F00D162B6AAE74FF47A712046FFF76E
:101E600095FE0028A3D010F1190F3FF47FAF9FE734
:101E700035B1A3682B60E3686B602369EB6096E77C
:101E80006FF0150094E770B504460D46EFF3108629
:101E900072B681F00103C37089B91821FFF750FDB4
:101EA000637823B104F11C00657000F0DFFDA378B6
:101EB0002BB1002304F12400A37000F0D7FD16F02D
:101EC000010F00D162B670BD10B5044600211C3070
:101ED00000F021FE002104F1240000F01CFE01218D
:101EE00004F1340000F017FE012104F1480000F075
:101EF00012FE04F12C000121BDE8104000F00BBEE1
:101F000070B5836805465C6904F11406304600F03C
:101F100097FD2378012B06D9013B2370304600F052
:101F2000A5FD002070BD0021E36D204621709B6956
:101F300098472B685B0604D44FF4C8712046FFF71E
:101F400025FEEFF3108572B6E36D2046DB689847F7
:101F500023791BB9E36D20465B68984715F0010FA4
:101F600000D162B62046FFF7B1FE2046FFF7ACFF76
:101F7000D4E770B5002504462E46A28FE38F12B237
:101F80001BB29A4211D1A28FE38F12B21BB29A42B6
:101F900004D1E36D002120469B6A9847ADB2EDB1B4
:101FA0002046BDE87040FFF7A1BEE36D2046DB6A26
:101FB00098470028E7D0E38F2046616C1BB2E26DA2
:101FC000C95C526A9047E38FB4F9402001331BB2D9
:101FD0009A42E38700DCE6870135CEE770BDF7B5AE
:101FE000B0F850500446B0F9543000272DB20135F6
:101FF000AB42D8BF0025E36D2046DB69984730B37C
:10200000B4F85260E36D36B2AE4216D0E36D01A96A
:1020100020465B699847AE42EDD0B4F850300137A6
:10202000A26D1BB2D0542BB20135A4F85030B4F9D4
:102030005430AB42D8BF0025DDE71B6A002BE5D04A
:102040000122B4F95410204698470028DED0BFB2D0
:1020500017B12046FFF73AFE03B0F0BD30B585B0AA
:102060000C461546684600F019F82A68214668466D
:1020700009F08CF905B030BD0D2938B504460D4680
:1020800007D0284600F016F8031E03DBE36801338F
:10209000E36038BD0433F4D0FBE70000034B03607A
:1020A000034B83600023C360704700BF792040006A
:1020B000C1C7400038B50C4B04460C4D1B681BB122
:1020C000286858B9204638BD00F058FC0028F7D1E0
:1020D00028680028F6D003681B6801E003685B6885
:1020E00021469847EEE700BF5C1E4020F0044020E8
:1020F000F8B50E4600F1140500F12404EFF3108743
:1021000072B655F8042F42B15368916833400B43BF
:10211000936013B1106900F0A9FC17F0010F00D112
:1021200062B6A542EAD1F8BD2DE9F04183680F46B9
:1021300090465C6904F10806304600F04DFC051E2F
:102140003ADBB8F1000F3AD004F11402002352F840
:10215000041F39BB063344F8237004EB83037B610F
:10216000EFF3108072B623682269013361689A42E6
:1021700098BF0023C91A23686768134418BF012158
:10218000DB1B8900B3FBF2F702FB17330BB141F005
:10219000010110F0010F00D162B651B12046FFF7E6
:1021A000A7FF06E00133042BD1D100236FF00F0508
:1021B0007B61304600F05AFC2846BDE8F0817B691F
:1021C000002BF6D0C3F80080C7F81480F1E72DE9A2
:1021D000F04183680F4616465D6905F108084046E0
:1021E00000F0FAFB041E0FDB00242046B44203D0AB
:1021F0002A686B689A420AD1404600F037FC1CB14D
:1022000004212846FFF774FF2046BDE8F0816A6884
:102210006B69995C6A6898546B682A6901339342C8
:102220006B6000D3686039550134DFE72DE9F04178
:10223000284E04460F46B04223D10368B3F5004F41
:102240001FD14368B3F5004F1BD100254FF00108A3
:10225000D0E90420831813F8011CAA420BD010F90E
:1022600005C0435DBCF1000F1FDA00210AF087FBB7
:1022700033699D4202D1B8F1000F02D00023736090
:102280003360EFF3108272B62368216901339942FB
:1022900098BF00236168994212D112F0010F00D15A
:1022A00062B66FF00F00BDE8F08129B10BB9984616
:1022B000356001351946D0E7002BFAD07560F8E794
:1022C000216860694754236012F0010F00D162B6A3
:1022D0000020E8E7F80440202DE9F84300F1080762
:1022E000044689469046384600F076FB051E1CDB06
:1022F00045460026464506D019F806102046FFF749
:1023000095FF002814DA6EB12269236861681344CE
:102310005B1AB3FBF2F102FB11331BB10121204622
:10232000FFF7E6FE384600F0A1FB2846BDE8F8833B
:102330000136DFE783685869FFF7CEBF2DE9F0412A
:1023400083680E4617465D6905F10808404600F0AF
:1023500043FB041E10DB40F207339E420FD1296974
:102360002B686A680B449B1AB3FBF1F201FB123332
:102370003B60404600F07AFB2046BDE8F0816FF0FC
:102380001804F6E7034B4FF4DB720349034800F0EF
:1023900029B800BFF8044020F4BE5100BC645000CE
:1023A00038B50C4C0D46C9B22046FFF73FFF002858
:1023B0000EDB22692368616813445B1AB3FBF2F1F8
:1023C00002FB11331BB101212046FFF791FE284685
:1023D00038BD00BFF80440200148FFF77DBF00BFB3
:1023E000F80440202DE9F34107460E4690461D466D
:1023F00000F01CF8041E12DB01AA4146384600F02A
:102400007BF8041E09DB019B0024DA8922F00F020D
:1024100042F00102C3E90465DA8100F029F82046A0
:1024200002B0BDE8F08100F05BB8000038B50F4C99
:1024300000F0BAFF0546A368984204D1A3890020A2
:102440000133A38138BD204600F002FB002807DAE3
:10245000FFF714F900680428F5D08C28F3D0404227
:102460000028EFD10123A560A381EBE720054020E0
:1024700008B500F099FF0A488389012B0CD100238D
:1024800083814FF0FF33836000F038FB002805DACA
:10249000BDE80840FFF7F2B8013B838108BD00BFEB
:1024A0002005402010B503460446184613F8012BBA
:1024B0002AB9001B1C3008F0C3F918B910BD2F2A27
:1024C000F3D1F6E700F11803013C14F8012F12B91B
:1024D00000221A70F2E72F2AFAD003F8012BF4E752
:1024E00008B50348FFF7DEFF024B186008BD00BFC8
:1024F00074F55000649E402000232DE9F0411646FB
:102500001360027888B0002A45D08DF81C30CDE9E0
:10251000010301A8CDE90333CDE9053300F04AF802
:10252000002835DA019FDDE90354384600F036F81B
:10253000037880463846D3B1FFF7B4FF48B96FF04F
:102540000B04069808B108F05BF9204608B0BDE816
:10255000F0813DB16B68C0E90043686047460446BE
:102560000025E2E7A368C0E90043A060F6E7FFF7B3
:1025700099FF0028E3D035B16B68C0E9004368607B
:1025800000243060DDE7A368C0E90043A060F7E7FE
:102590006FF01004D5E76FF01504D6E70278034614
:1025A00001300AB12F2AF9D11846013302782F2AB7
:1025B000FAD07047F8B5036804461B782F2B11D06A
:1025C00005462E4800F06CF82D4A55F8143B0028BB
:1025D00018BF02462B49284608F08EFE6369002B7F
:1025E00046D02360284B196823681A782F2A42D1D5
:1025F00000252E4641B90A466FF001002261C4E968
:102600000031C4E90265F8BD53B301F117005F1E44
:1026100010F801CF17F8012FBCF1000F06D182B1DD
:102620002F2A0ED04A680E461146E3E722B12F2A20
:1026300002D09445F6D3EBD900216FF001000A4691
:10264000DCE71846FFF7AAFF0346007858B1CA89AD
:1026500002F00F02032A08D08A680D460021E2E743
:102660001A461946C8E71A46C8E71A460020C5E7C1
:102670006FF00B00C7E76FF01500C4E795785000C6
:10268000C0E95000C8645000649E402006F0B8BA0B
:10269000024A136801331360704700BF709E4020E8
:1026A00038B5044618B300F031F9124B1B689D6829
:1026B0008DB12146284600F0E5FF041E0CDB2B6C93
:1026C0003D2153F824000AF0A2F968B1441C00F03F
:1026D0002DF9204638BD2C4600F028F96442FEF75B
:1026E000CDFF04600024F4E76FF01504F4E76FF009
:1026F0001504F3E7609F40203F4C01233F4DA82283
:1027000004F18C062B7083B5002120460AF037F9BE
:10271000032318223A49237730463A4B3A4FC4E90B
:1027200005330623A3860AF08FF9384920463E6018
:1027300008F0AEFC364B374E1C6002232B7000F0C5
:102740000AFA01A9684606F049FADDE9000108F035
:1027500049F8042333603368012B49DD3068800079
:1027600008F06EF82C4B186033680460224894F827
:10277000341001F033F8A3681F489B6A9F6006F08D
:1027800003FE1D4800F02CFE1B4801F055F8A3681D
:1027900005221A720022214B1A6003232B7000F0CD
:1027A000B5F80BF0FFFD1E4B0BB101F0A5F81D4B6A
:1027B0000BB1FFF76BFF1C4B0BB101F0A1FE02F058
:1027C00025F906F083FC0AF05BFD04230A482B7010
:1027D000F1F028FF084801F05FF805232B7000F0A6
:1027E00025F806232B7000F0A1F806F0CBFDFCE7DE
:1027F00033685B00AEE700BF7C9E4020249F4020F2
:1028000014BF5100F9264000749E4020609F402074
:102810005C9F4020289F40202C9F4020309F4020DC
:10282000F93840008D2640000145400013B50024D2
:1028300001220949094800F03DFF00F065FE00F063
:102840006FFE074B40F67A4264210094054800F081
:10285000DEFB204602B010BDC0E950009578500064
:10286000754A4000CE645000F92870B505460C4604
:1028700013D8EFF3108672B619B9FEF7D5FA2246CF
:10288000074C084B43F8354003EBC5035A6016F07C
:10289000010F00D162B6002070BD6FF01500FBE79C
:1028A000E5284000ECA14020F92808B50CD8094AD9
:1028B00052F830305BB102EBC00252689847064BC9
:1028C0001A68064B1A6008BD0022054BF6E71A4647
:1028D000FBE700BFECA14020609F40205C9F4020B0
:1028E000E528400008B50346EFF3108272B60449AC
:1028F0000320044AFEF76CFE36210348FEF728FE4B
:10290000D764500060BF5100EA645000054B1B685B
:102910002BB1054A126812B9DA8E0132DA8600202C
:10292000704700BF609F40205C1E4020104B10B5D8
:102930001A6892B10F4B1B687BB9EFF3108472B623
:10294000B2F93630002B0ADC0023D3860A4B1B6811
:102950005BB914F0010F00D162B6002010BD013B3D
:102960001BB2D386002BF4D1EEE706F0CBFBF0E7E9
:10297000609F40205C1E4020549F4020044B1B68F9
:1029800023B11868B0FA80F0400970470120704701
:10299000609F402038B50F4B0C461D6870B100F0A9
:1029A000D1FFA0B1AB8E03F00303022B07D0AA68BE
:1029B00083689A4203D06FF00C0007E02846C36C8E
:1029C0002360036D6360436D0020A36038BD6FF02A
:1029D0000100FBE7609F4020184B70B504461D685E
:1029E000EFF3108672B628B303881BB2002B03885E
:1029F00003F1FF331BB2038009DD002400F0C8F9A6
:102A0000AC6516F0010F00D162B6204670BDA86516
:102A1000FFF77CFF204600F0C3F90023052128467C
:102A20002B8706F0DDFAB5F9384004B16442FFF7B0
:102A30007DFFE6E76FF01504E3E700BF609F4020ED
:102A400010B504462046FFF7C7FF031DFAD010BD9E
:102A500010B5FFF7C1FF041E06DA6442FEF70EFE52
:102A600004604FF0FF3010BD0020FCE770B5054654
:102A700000283ED0EFF3108672B6038847F6FF7247
:102A80001BB2934206D116F0010F00D162B66FF06F
:102A90008A0070BD00F08EF92B8801331BB22B80A9
:102AA000FFF734FF2B881BB2002B20DC124B1C6875
:102AB0007CB1A36DAB4218D12946204600F040F905
:102AC00004F13C0000F09AFC00232046A36506F0C8
:102AD000B7FB2946204600F091F9FFF727FF16F0D3
:102AE000010F00D162B60020D3E72468E0E700249C
:102AF000EFE76FF01500CCE74C9F402010B5FFF7D3
:102B0000B5FF041E05DA6442FEF7B8FD04604FF01D
:102B1000FF34204610BD70B505460C46FFF7F6FEA3
:102B2000EFF3108672B62B881A040AD42B881B0484
:102B30000FD516F0010F00D162B6FFF7F7FE0020A7
:102B400070BD002CF2DD013C2846FFF78FFF24B258
:102B5000E9E72C80EDE700F0CFB80000CB6803F187
:102B600030021B6B1BB18B4212D14B6813600023E8
:102B7000021DC1E90133CB600B8243681BB18B425C
:102B800009D10B681360054B1A6819600A60704719
:102B90001A1D5B68E6E71A461B68EFE7689F40204E
:102BA00008B503460846B3F91020002A04DC19468C
:102BB000FFF7D4FF012008BD0020FCE708B50B4655
:102BC00001461846FFF7CAFF002008BD10B5C068CF
:102BD000117C90F82E3099420ED9047CA1420DD977
:102BE000A34206D2437F0F2B9FBFC11801338C77BE
:102BF0004377117C00F0ECFE002010BD437F0F2BCB
:102C00009FBFC218013391774377F5E70346084623
:102C100070B51546B3F91020DC68002A02DC1946AD
:102C2000FFF79CFF227C94F82E108A4204D0637F29
:102C300023B9204600F00EFF002070BD297C8A4297
:102C400018D804F11E060020012225189342A97FFE
:102C500009DC013B20461EBFE218927FAA7763770A
:102C600000F0B6FEE8E716F8015F8D4288BF104617
:102C70000132EAE704F11D00002210F8015F8D42E5
:102C800007D1013B1FBFE1181219897F9177637744
:102C9000D2E701329342F0DCCEE70000054B10B5DD
:102CA0001B68C4689C4203D1FFF7B0FF012010BD30
:102CB0000020FCE7609F4020064B10B41B68C468EE
:102CC0009C4203D05DF8044BFFF7A0BF00205DF8E5
:102CD000044B7047609F4020F8B504460D461646E9
:102CE0004068002300B103B1F8BD076832462146B1
:102CF000A84703463846F5E7074A0021074B1A6004
:102D000002F11403013143F8143C14331F29F9D1A3
:102D10000023C2F86C3270476C9F4020689F4020AF
:102D200010B5EFF3108472B600220449FFF7D4FF08
:102D300014F0010F00D162B610BD00BFBD2B4000E2
:102D4000036830B5DBB18B78DB0718D44A681346CB
:102D5000B3B90E4C236893B11D681A6000224B6012
:102D60001A822560C3E90210026B5A600363B3F94B
:102D7000102047F6FF718A421CBF01321A8230BD13
:102D8000DC68A042F3D01B68E2E700BF689F4020E8
:102D9000024B01461868FFF7D3BF00BF609F402079
:102DA000024B03491A68FFF797BF00BF609F40209E
:102DB000CD2B40000C4B002210B511461C68436817
:102DC00033B9012A02BF0B8A03F1FF330B8205E0FE
:102DD000D968A14203D11A8A013A1A8210BD194654
:102DE00001321B68ECE700BF609F402002460846A6
:102DF0000149FFF771BF00BF0D2C400038B50446F4
:102E00000D4690B10A4B1B681BB1BDE83840FFF777
:102E1000EDBF024607492846FFF75EFF22460649F6
:102E20002846BDE83840FFF757BF02460349F7E799
:102E30005C1E4020B92C40009D2C4000A12B40007E
:102E400010B50446216B01B910BD8868FFF786FEF6
:102E5000F8E7012908B50AD002290DD079B982789E
:102E600042F001028270FFF75BFF002008BD82780C
:102E700022F001028270F8E76FF08500F6E76FF04C
:102E80001500F3E710B5FFF7E4FF041E05DA64420E
:102E9000FEF7F4FB04604FF0FF34204610BD000045
:102EA0002DE9F7430E460546002836D042681C4BF4
:102EB0009A4232D8EFF3108772B6DFF8689068460E
:102EC000D9F8008008F09BF92A460021684600F0F6
:102ED00027FE10F10B0F044608D117F0010F00D1A7
:102EE00062B60024204603B0BDE8F08386B101A994
:102EF000284608F0F5F8D9F8003001983146A3EBE0
:102F0000080290428ABFC01A0020404408F0DAF854
:102F100017F0010F00D162B6E4E76FF01504E1E7A6
:102F2000FFC99A3B709E40207FB51D46CB071446D3
:102F300025D5EFF3108672B602A900F0FDFA00283D
:102F400008DA16F0010F00D162B64FF0FF342046C8
:102F500004B070BD6A4602A9204608F0DDF8294693
:102F60006846FFF79DFF044616F0010F00D162B6D8
:102F7000002CECDA6442FEF781FB0460E5E72946A9
:102F80001046FFF78DFF0446F2E7000007B568B171
:102F9000084A0021B0FBF2F302FB130000934FF448
:102FA0007A73584301906846FFF77AFF03B05DF8E3
:102FB00004FB00BF40420F002DE9FF410546A82059
:102FC000884616461F4607F03BFC0446E0B1002346
:102FD000A0F834802946324603930C9B02930B9B46
:102FE00001930A9B00933B4600F044F8051E06DA65
:102FF000204607F005FC284604B0BDE8F0812046D5
:10300000E56800F091F9F6E76FF00B05F3E71FB5FF
:10301000069C00920A46CDE9013400231946FFF7C9
:10302000CBFF04B010BD13B5049C0094FFF7EFFF75
:10303000041E05DA6442FEF721FB04604FF0FF3402
:10304000204602B010BD1FB5079C0294069CCDE936
:10305000003413460A460221FFF7AEFF04B010BD4C
:1030600013B5049CCDE9003413460022FFF7EBFFB3
:1030700002B010BD2DE9F34790F83460884605464C
:10308000914631461F46DDF828A000F0A7FB041E3C
:1030900040DB0D9906F00306A86800F0ABFA041EA9
:1030A00011DB284600F014FC041E0CDB87B15246ED
:1030B0003946284606F0EEF8041E05DB284600F0E7
:1030C0008FF9041E13DA57B1284600F0BBFB21E04C
:1030D00032465146284605F0BBFF041EEEDA2B6D42
:1030E000002BF1D03146284606F032F8ECE70B9B76
:1030F00049460A4A2846009600F09AF8041EE2DB88
:103100000C9A4146284600F0A3F8041EDBDB284653
:1031100000F092FB204602B0BDE8F0875533400036
:103120002DE9F74F04460E4601929846EFF31089B9
:1031300072B6DFF8F8A03A4FDAF8005000203B688A
:103140000135384A116888420EDB1068C00007F06C
:1031500077FB344A0546002846D119F0010F00D10B
:1031600062B66FF00B0039E0012D1168B8BF012580
:103170000139294053F821B0BBF1000F31D143F898
:103180002140E560CAF8005019F0010F00D162B685
:10319000019BF6B29DF830205946032026746674D0
:1031A00084F82E60C4E90538A38E62F3010304F1AC
:1031B0005C0223F06003A38600F072FC204684F8D2
:1031C0001CB006F0E1F8FFF7A1FB1749204607F015
:1031D0005FFF04232377FFF7A9FB584603B0BDE840
:1031E000F08F01350130ADE711684FF0000C0D4B49
:1031F000490011601A68386802EBD272BCEB620FAA
:1032000003DB07F0FDFA3D6096E750F82C000CF167
:10321000010C1A68C168013A0A4045F82200E9E742
:103220002C9F4020289F4020349F4020309F4020EA
:1032300010B49DF8044001945DF8044BFFF770BF93
:1032400013B501240094FFF76BFF02B010BD00001E
:10325000344B2DE9F74F002914BF8846984607469E
:1032600000241546414618228C3009F009FC4046DE
:1032700087F8A44009F0FCFB461C4DBB2C460234E9
:10328000384606EB840105F0B7FF06464FEA84098D
:10329000002844D000EB090AA9F10809B346043D0F
:1032A000C0F800A0404609F0E3FB0446B1444146A3
:1032B0000134504609F0C0FB5444CB451BD10020DB
:1032C0004AF8040CBB689B6A9E6003B0BDE8F08FAF
:1032D00040F2011955F824000028D0D0013609F039
:1032E000C7FBFB6C06449E4216D201344C45F1D11B
:1032F0006FF00600E9E74BF8044F55F8041F084645
:10330000019109F0B5FB80460199204608F10108BA
:1033100009F092FB4444D0E76FF05A00D5E76FF014
:103320000B00D2E773BF510038B50446EFF31085A8
:1033300072B6037F042B01D0F1F096F92046F1F02C
:1033400071F9204605F07CFF15F0010F00D162B63F
:1033500038BD000038B5134B1C68A38E03F003037F
:10336000022B02D0204600F0B3FEA368012040F2F9
:1033700001119B6A9A6852F820304BB9A38EA56957
:1033800003F00303022B08D11146A847FEF7E6F825
:1033900001308842EFD10120F8E70146284607F0C6
:1033A000D9FEF8E7609F4020054B186830B1037FD5
:1033B000032B01D1C06870476FF00200704700BF57
:1033C000609F40200446002208B5E4B2034B21462A
:1033D000186800F0A5FE204605F060FE609F4020C2
:1033E00010B51821044605F007FF20B1A3689B6AB9
:1033F0000360002010BD6FF00B00FBE738B50446FA
:10340000EFF3108572B6F8B14368EBB1114B0020B1
:103410001B68E3B1A34210D123681BB19A68A1686D
:103420000A449A6060B10B4907F017FE0020606003
:1034300015F0010F00D162B638BD18461B68E8E7E9
:10344000044807F000FEF1E76FF01500F0E71B6895
:10345000FFDE00BFBCA94020F8B500220B46114694
:10346000586809F0DAF80546EFF3108472B60026C2
:10347000A4B200F108073846FFF7E2FA284607F041
:10348000E2FD03460028F6D00269002AF3D0406925
:103490001E6114F0010F00D162B69047EFF3108463
:1034A00072B6A4B2E7E700002DE9F0418CB0044603
:1034B0000E4617460DF11008114A20211D464046C0
:1034C00007F027FFCDF808804FF00008CDF80C80FA
:1034D000FFF71CFA02AB20463A4631460093094BEF
:1034E000FFF7BEFD041E07DB2C614446FFF71EFA02
:1034F00020460CB0BDE8F081FFF718FAF8E700BFEE
:103500000265500059344000034B40F6B832F921AF
:103510000248FFF7C9BF00BF4405402007655000BF
:10352000034B4FF4206232210248FFF7BDBF00BFBA
:10353000300540200E655000431E012B37B50D4667
:103540000CD8084600F040F80446002C2FDA6442FC
:10355000FEF794F804604FF0FF3428E0002829D1EA
:10356000684600F031F804460028EED1EFF31081F0
:1035700072B6124A009B1068526803440093019B84
:103580001344019311F0010F00D162B60C4A019B64
:10359000934208DD0B48009A93FBF0F10A4400FBCC
:1035A000113300920193009B2B60019B6B602046BE
:1035B00003B030BD6FF01504C9E700BF689E40201E
:1035C000FFC99A3B00CA9A3B084B4FF47A7210B578
:1035D000044619680A200023A1FB000115F03CFAFB
:1035E000034B206000205343636010BD709E402059
:1035F00040420F002DE9F041214B0C4606461D6864
:10360000FFF784F97CBBAB681C6C64BBFFF78EF9D9
:103610002046BDE8F081013554F82570002FFAD11D
:103620005DB34FEA850808F1040007F0F1F807469A
:10363000B0B10023444440F82530013D54F8040D56
:1036400009F016FA013007F0E3F847F8250078B9D9
:1036500007EB850555F8040F38B9384607F0D0F860
:103660006FF00B040AE00025D6E707F0C9F8F1E790
:10367000216809F0E1F9013DE0D200243764C5E793
:10368000609F402070B5046C84B1002054F8203055
:1036900063B14A1E013B12F8016F13F8015FAE429D
:1036A000F9D00EB93D2D03D00130EFE76FF00100E6
:1036B00070BD00002DE9F8430F461446054600286A
:1036C00060D009B10B782BB9B4B12846BDE8F843F6
:1036D00000F05EB8FFF71AF92B4B1B68D3F808808F
:1036E000D8F8403073B129464046FFF7CBFF011EA2
:1036F00008DB24B9FFF71AF90020BDE8F88340463B
:1037000000F0F7FD284609F0B3F90446384609F001
:10371000AFF92044023007F07BF8064638B3D8F8FA
:103720004090B9F1000F2BD1082007F071F8D8B103
:103730004C4640F82460002300EB84042A461349D9
:1037400063603B46C8F84000304607F0BEFDD1E755
:10375000013459F82430002BFAD1A11C48468900C5
:1037600007F066F80028E4D1304607F049F80C2449
:10377000FFF7DCF8FDF782FF04604FF0FF30BCE795
:103780000024E6E71624F5E7609F40201565500009
:1037900038B5114B04461B689D6828B103781BB1EE
:1037A0003D2109F034F930B1FDF768FF16230360BD
:1037B0004FF0FF3038BDFFF7A9F845B12146284644
:1037C000FFF760FF011E02DB284600F092FDFFF7C5
:1037D000ADF80020EEE700BF609F402070B50646C0
:1037E0004FF47D7007F02CF8044610B300F0DBFCBA
:1037F000051E04DA204607F003F8284670BD04F1E0
:103800004400B4600AF0FFFD204608F031FE0122BA
:10381000002104F1180007F0A8FC0C340022002558
:103820002046114607F0A1FC00212046FFF711FBBE
:10383000E3E76FF00B05E0E7D0E902321A600122FE
:103840005A72704738B58468054634B1637A012BE3
:1038500004D9013B63720023AB6038BD204600F001
:10386000B3FC204600F06CFA204600F053F804F157
:1038700044000AF0CCFD204608F019FE204600F076
:1038800024FDA37A23B1237A43F008032372E2E7ED
:10389000204606F0B5FFDEE738B5032105460B48A4
:1038A0000BF091F9041E0BD101210AF0A5FE204670
:1038B00002210AF0A1FE2846BDE8384000F037BDDD
:1038C00001DD0AF0E8FE6FF0160038BD3C625000E2
:1038D000084B10B51B680446816898684431443031
:1038E0000AF02FFE002804DB2046BDE8104000F05F
:1038F0001EBD10BD609F40200023044A044942F8C9
:1039000033100133FA2BFAD1FDF7C2BAECA14020F3
:10391000E528400038B50446256A2DB904F11800A1
:10392000BDE8384000F0A0B8284650F8143B2362A8
:1039300000F09AF805F10C0000F096F8284606F021
:103940005FFFE9E70346EFF3108172B60B4A106898
:1039500060B1002B0FDB0A4A1268013A1A4050F896
:10396000220018B1C2689A4218BF002011F0010F5E
:1039700000D162B670470020F8E700BF2C9F4020BE
:10398000289F402038B50446E0B1C2687AB1EFF311
:10399000108072B60C4B00251B68013B13400B4A8C
:1039A000126842F8235010F0010F00D162B6236D67
:1039B00013B1204605F0CCFB2046FFF743FF20461D
:1039C00006F01EFF002038BD289F40202C9F40207D
:1039D000F8B54B1E0446FE2B34D8EFF3108772B6B1
:1039E000027FCDB2022A0ED0032A18D103681B7CB5
:1039F000994225DC294605F0BDFB17F0010F00D1E7
:103A000062B60020F8BD114B1B681B7C9942F1DCAB
:103A100000F0E6FC2046257400F0BEFCEDE70C4B00
:103A200053F8326003EBC2031B79DB0708D531463C
:103A300007F039FB31462046257400F0E5FCDCE751
:103A40002574DAE76FF01500DCE700BF609F4020C7
:103A500020BF510038B504460D46FFF7B9FF10B935
:103A600084F82E50607738BD08B540B103881B0438
:103A700001D401230380FFF753F9002008BD6FF044
:103A80001500FBE710B5FFF7EFFF041E05DA6442EF
:103A9000FDF7F4FD04604FF0FF34204610BD000038
:103AA000F8B51746154B06460C461D68FEF72EFF67
:103AB0000FB1EB6D3B609CB1EFF3108272B6022E3A
:103AC00012D0032E15D0012E15D1EB6D21680B43BA
:103AD0000024EB6512F0010F00D162B600F098F8F7
:103AE000FEF724FF2046F8BD2168EB6D23EA0103B1
:103AF000EEE72368ECE76FF01504EBE7609F4020EA
:103B0000027F062A0AD140F2FF22A0F87420742214
:103B100080F876200022826705F092BB7047000093
:103B2000364B2DE9F74306460D4691461C68EFF3E8
:103B3000108772B6D0F80080204600F0E1FD08EA58
:103B400000000190B0B101A800F0D2F80146204673
:103B500000F090F81DB143682B6083686B600679B4
:103B600000F0A6F817F0010F00D162B6304603B09E
:103B7000BDE8F08333682366B9F1000F32D0D9F87D
:103B8000040004F13C081E4A0023C117D9F800E0E4
:103B90008018DFF878C01B4A41F10001EEFB0C01F0
:103BA00014F05AFF23460146174A404600F016FB20
:103BB0002046062105F014FA4046FFF71FFC94F852
:103BC000741000231F29236611D8304607F01BFB11
:103BD00080B194F87460002DC4D0636F2B60A36F24
:103BE0006B60BFE70621204605F0FAF9E7E76FF0C2
:103BF0000A06F0E76FF00306EDE700BF609F402084
:103C00007F96980080969800013B400000CA9A3B3E
:103C1000174B37B51D68FEF779FEEC6D284600F0AE
:103C20006FFDE4430440019424B9FEF77FFE204673
:103C300003B030BD01A800F05BF8431C044610D06F
:103C4000014601A807F0CFFA2146284600F012F8F5
:103C5000044630B1011D284600F086F8204600F0E9
:103C600027F8019B002BE5D1FEF760FE0120DFE77E
:103C7000609F402038B58368EFF3108572B600204E
:103C80005C6B3CB122798A420AD103F1340150B114
:103C900007F0E3F915F0010F00D162B6204638BDF8
:103CA00020462468EDE7084607F0CDF9F2E700006A
:103CB00010B5037B53B9EFF3108472B60A4907F0CD
:103CC0008EF914F0010F00D162B610BD022B04D1A1
:103CD000EFF3108472B60549F1E7012BF5D1BDE889
:103CE000104006F08DBD00BFCCA94020C4A94020E3
:103CF00038B5054601242146284607F084FA20B944
:103D00000134202CF7D14FF0FF34204638BD38B5B0
:103D1000044600F16405284607F095F950B904F10E
:103D20006C05284607F08FF938B94FF0FF32C4E927
:103D3000172038BD00F032FDEDE700F02FFDF0E771
:103D400038B5044600F12C05284607F07CF928B95F
:103D50003434204607F077F918B938BD00F02EFC4E
:103D6000F2E7FFF7A5FFF4E72DE9F0410D460978EA
:103D70000446F1B15C3007F046FA0128074664D1E9
:103D8000EFF3108672B6237F062B14D1297804F145
:103D9000600007F038FA70B12B68204663676B68E3
:103DA000A3670023236605F04BFA16F0010F00D13C
:103DB00062B600269EE016F0010F00D162B6A4683C
:103DC0002978EFF3108272B6636B13B118798842C9
:103DD00009D112F0010F00D162B633B12A685A60DE
:103DE0006A689A60E5E71B68EFE7474B1B68C3B159
:103DF000464807F028F920B9454807F024F900287B
:103E0000D7D02B6843606B688360EFF3108572B680
:103E100004F1340107F0E3F815F0010F00D162B6A8
:103E2000C7E7EFF3108672B6384807F00CF916F0C2
:103E3000010F00D162B60028E3D1102006F0E8FCA3
:103E40000028B6D001230373DBE7FEF75FFD297876
:103E5000A06800F06BFC064620B3436813B300F083
:103E600077FC002849D073684360B2688260F368C9
:103E70009B0604D4297801238B40134383602B686D
:103E8000C3606B680361EFF3108672B604F16401DE
:103E900007F0A5F81F49204605F0B8FA16F0010F03
:103EA00000D162B60026FEF741FDEFF3108872B62E
:103EB000237F062B08D12B68204663676B68A367B6
:103EC0000023236605F0BCF918F0010F00D162B69B
:103ED000002F15D1237F052B03D10421204600F0AC
:103EE000F2FA237F072B05D12B78082B02D120462D
:103EF00000F0C4FA3046BDE8F0816FF00B06D2E75F
:103F0000F8DA6FF01506F5E75C1E4020CCA94020DA
:103F1000C4A94020193F40002DE9F74F0446FDF7A2
:103F2000ADFB0368B4F9388004F1640A04F16C074E
:103F30000093EFF3108972B6A28E12F4007301930E
:103F40000CD019F0010F00D162B6FDF797FB009B72
:103F50000360A4F8388003B0BDE8F08F504607F046
:103F600072F805460028ECD0A28E394642F4007261
:103F7000A28607F034F8D4F85CB0AE684BEA0606C7
:103F8000E66519F0010F00D162B66B6805F10C010E
:103F9000019A287B9847EFF3108972B6A38E2846C2
:103FA000E16D23F40073A38681EA0B0371400B409B
:103FB000394683EA0B03E36507F02FF819F0010F88
:103FC00000D162B6FFF724FE284600F0E7FBB0E719
:103FD000704700000F4B70B51D68AC68FEF796FC8B
:103FE000E37A5A0706D4284600F02EFABDE870405E
:103FF000FEF79CBC626900230AB11360636104F19F
:104000000C06E372A3891B04EDD53046FEF72EFDA6
:10401000F8E700BF609F402008B5064B1B689B8EE9
:1040200003F00303012B02D1002006F0D1FF012091
:10403000FDF794FA609F402008B580683C3007F097
:10404000E2F80028D4BF0020012008BD0023094A5F
:1040500010B512F8334002EBC301844204D1487812
:10406000C04300F0010010BD01330B2BF1D1012042
:10407000F9E700BF7CBF510038B580684AB1002322
:10408000124A12F8335002EBC304A9420DD16468FE
:104090007CB9EFF3108472B63C3007F0A4F814F04A
:1040A000010F00D162B600240DE001330B2BE8D1E3
:1040B000EFE7EFF3108572B63C3007F088F815F0A3
:1040C000010F00D162B6204638BD00BF7CBF510051
:1040D0002DE9F04386680024104D4FF002093C366C
:1040E000A04685B0304607F08AF86B6873B12F7828
:1040F00001A90022CDF80C903846CDE90138012302
:1041000000F06AFA3946304607F061F801340835A4
:104110000B2CEAD1002005B0BDE8F0837CBF510034
:1041200070B5838E0E460446190517D43AB98068D7
:1041300028B1437A012B02D1543008F08AF8204686
:1041400000F025F8A56855B92046FFF77BFB20460F
:10415000FFF7DDFDA38E43F40063A38670BDA38E3D
:1041600003F00303012B03D06B690BB136021E6011
:104170006B7A012BE8D1002305F10C066B61EB7221
:10418000AB891B04E0D53046FEF770FCF8E710B5AC
:10419000044600F0E2F8204600F094F82046BDE81E
:1041A000104000F076B938B505464C2006F048FBC3
:1041B000044630B10122002106F0D7FF0020AC6296
:1041C00038BD6FF00B00FBE710B5846A2046FFF79F
:1041D0004BFC2046BDE8104006F012BB2DE9F04133
:1041E0000C46164698460546002847D0002A45D07A
:1041F000002943DBEFF3108772B643680BB1FFF77A
:10420000FDF8204901346E600E68C5F80C801EB9B7
:10421000284606F0E4FE24E030463246002391684A
:104220005B1801D5116831B9A3420CDC116829B9BA
:10423000E41A1449ECE710460A46F0E7886803449C
:1042400010460A46F0E791689642A3EB0103A4EBFF
:104250000304A1EB040191600BD10A49284606F042
:10426000C8FEAC6017F0010F00D162B60020BDE8B7
:10427000F081044A294606F0C2FEF2E76FF015000D
:10428000F5E700BFBCA9402038B50D4C236843B109
:104290009A680025013A9A60236813B19B68002B45
:1042A00000DD38BD204606F0CEFE23681BB19A68BB
:1042B00081680A449A6043684560C0689847EBE7A4
:1042C000BCA940203C30FFF799B838B5036C0446D0
:1042D0006BB90023236438BD06F092FA236C585959
:1042E00004350028F8D1184606F08AFAF1E70025CF
:1042F000F4E770B5036C05460C4653F8210006F050
:104300007FFAA1002A6C0B1DD05842F8240001341A
:10431000286CC658002EF4D1012C03D106F070FA97
:104320002E6470BD083106F083FA0646F8E70023D4
:104330000246012110B5044618460BF0BDF80023D3
:104340002246062101200BF0B7F800232246062161
:1043500002200BF0B1F8002010BD38B5002504464E
:10436000FEF7D4FAE36F1BB9BDE83840FEF7DEBABA
:10437000EFF3108372B6E06F0268E267056013F036
:10438000010F00D162B6037C043043F002030373D3
:1043900000F035FAE6E700000F4B10B51B68044645
:1043A000B3F93620002A0ADD1A7C037C9A4206D231
:1043B0000A4900F029F80123002023770AE0064982
:1043C000204600F021F802230028F5D003222277AE
:1043D0002268137710BD00BF609F4020549F40208B
:1043E00038B5436804465BB90368032201251A7790
:1043F0002046044906F057FE00232846237738BD9F
:104400000025F5E7609F402010B50B68027C5BB18A
:104410001C7C944206D25A68C0E900328AB95860BE
:10442000086007E01B68F2E74A68036022B943604E
:10443000C1E90000012010BD42601060486000200A
:10444000F9E710605860FAE738B50446EFF31085D5
:1044500072B6037F043B032B0CD800F0F1F9042360
:1044600007212046238700F0D7F915F0010F00D16E
:1044700062B638BD072104F0B3FDF6E710B5EFF3DF
:10448000108472B604F0DCFE14F0010F00D162B6A5
:1044900010BD70B50446EFF3108672B6037F052B8E
:1044A00009D1856D2946FEF7A1FC2B8801331BB28B
:1044B0002B800023A3652046FEF7C2FC16F0010FF7
:1044C00000D162B670BDF8B504460D46EFF3108713
:1044D00072B6037F052B0DD1866D3146FEF786FC43
:1044E0003388204601331BB2338000232587A36520
:1044F00004F0A6FE17F0010F00D162B6F8BD00006F
:10450000F8B50024284B294E6020C3E90044284B0D
:10451000C3E90044274BC3E90044274BC6E90044E4
:10452000C3E9004406F074F9054648B100F160079C
:104530002C7528461835314606F051FDAF42F7D1AB
:10454000602006F065F9044658B100F160050227C5
:10455000174E277520461834314606F040FDAC4210
:10456000F7D1402006F054F9044658B100F1400557
:104570000027104E277320461034314606F02FFDD9
:10458000A542F7D1402006F043F9044658B100F1A6
:1045900040050227084E277320461034314606F0A6
:1045A0001EFDAC42F7D1F8BDE4A94020DCA94020B3
:1045B000D4A94020CCA94020C4A9402010B5EFF3D5
:1045C000108472B6034906F00AFD14F0010F00D101
:1045D00062B610BDE4A940202DE9F84F1546464AC1
:1045E0001F280746D2F800900E46D9F8088003D954
:1045F0006FF01500BDE8F88FD9B93946404600F094
:1046000095F80446FDB996B13568012D32D12A4698
:1046100039464846FFF730FD05468DBB3CB1204684
:1046200008F12C0106F0F9FC2046FFF7C7FF002037
:10463000E0E7002BE1D10B68012BDED0FFF706FD90
:104640000028DAD1D4E739464846FFF7F5FC30B107
:1046500000230122C5E900230223AB60D3E72CB17C
:1046600063682B60A3686B60E368F6E7C5E9004404
:10467000AC60C8E7002239464846FFF7FDFCCCE7AE
:104680009CB9EFF3108972B61C4806F0DCFC0446B6
:1046900019F0010F00D162B6DFF860905CB108F14B
:1046A0002C012046277406F09AFC65607368A360AD
:1046B000B368E360BBE7502006F0AAF8044678B17F
:1046C000EFF3108A72B600F1500B204614344946BD
:1046D00006F085FC5C45F8D11AF0010F00D162B6F6
:1046E000EFF3108A72B6484606F0ADFC04461AF0A5
:1046F000010F00D162B6D1E7609F4020E4A94020BD
:1047000037B5002283680192EFF3108572B65C6BB7
:1047100034B915F0010F00D162B6019803B030BD75
:10472000217901A806F053FD2468F1E738B50D465C
:10473000044640B1FEF7EAF8E46A14B1237CAB42C8
:1047400003D1FEF7F3F8204638BD2468F5E70000F2
:104750000F4B10B51B6843B10E4806F074FCA8B9A6
:104760000D48BDE8104006F06EBCEFF3108472B641
:10477000084806F068FC14F0010F00D162B628B9B1
:10478000182006F045F808B10123037510BD00BFDD
:104790005C1E4020DCA94020D4A9402010B5037D38
:1047A00053B9EFF3108472B60A4906F018FC14F0FE
:1047B000010F00D162B610BD022B04D1EFF31084BB
:1047C00072B60549F1E7012BF5D1BDE8104006F0BE
:1047D00017B800BFDCA94020D4A9402008B53AB1E1
:1047E00019B9FEF7F9F8404208BD00F037F8FAE7CA
:1047F00011B9FEF725F9F6E700F034F8F3E708B54C
:1048000028B1FEF733F9002803DA404208BD16202C
:10481000FCE70020FAE7000038B50C46074B0546D8
:1048200053F8311003EBC4031B79DB0703D5FFF703
:10483000EBFD2C7738BD06F020FCFAE720BF5100D5
:10484000054B027F10B553F83210044606F02BFCDE
:104850000023237710BD00BF20BF51000A4600216E
:1048600000F004B80A46002100F048B8204B2DE9BA
:10487000F743804689461E681546002A35D0002831
:1048800033D0EFF3108772B600F0A0F8044680B181
:104890006A68184B9A4225D801AA2946484600F072
:1048A00067F828B9019C002C0BDC6FF0730400E062
:1048B000444217F0010F00D162B6204603B0BDE8B4
:1048C000F0833C3600F038F8214603460A4A304669
:1048D000FFF784FC4046FEF77FF804463046FEF7BB
:1048E0008DFDE6E76FF01504E3E76FF01504E4E7EC
:1048F000609F4020FFC99A3B1549400070B50446AF
:104900000D461646324629462046FFF7AFFF031DE7
:10491000F8D070BD10B5EFF3108472B6FFF712F83F
:1049200028B1037F052B02D17421FFF7CCFD14F0D1
:10493000010F00D162B610BD054B186830B1037F7E
:10494000032B01D1C06870476FF00200704700BFB1
:10495000609F402002680B689A4204D306D84068E2
:104960004B68C01A70474FF0FF3070470120704706
:104970007FB50E4669461546FEF7DEFD044608BBC8
:1049800069463046FFF7E6FF002805DA4FF0FF33AF
:104990002B60204604B070BD019B7468009AE41A35
:1049A0003368002CA3EB02030394029304DA064A53
:1049B000013B224402930392294602A806F090FB91
:1049C0000446E6E71624E4E700CA9A3B38B50E4BE6
:1049D0001D68B0B1EFF3108472B6028812B2002ADB
:1049E0000CDD0288013A12B20280FEF7D1F90020F4
:1049F000A86514F0010F00D162B638BD6FF00A004F
:104A0000F7E76FF01500F8E7609F402000F01AB854
:104A100038B50D4604462F21284607F08DFF00B11A
:104A2000451C284606F0FCF9031E08DB06F00AFACE
:104A3000C368236083682362436823770023184692
:104A400038BD0000014800F003B800BF5805402001
:104A500010B5044648B1FDF759FF054B1A682260AE
:104A60001C60FDF763FF002010BD6FF01500FBE731
:104A7000ECA9402037B504460D46002001A911F0ED
:104A800031F9019B642B05D0642301A90020019317
:104A900011F0F6F800F012F82946204600F04AF826
:104AA000044611F0C5F80449224600F51A7007F0D3
:104AB000B0FC012003B030BD1B65500008B500F00C
:104AC00007F800214FF60170BDE8084008F091BBDF
:104AD00073B5124E0024124D06203346114A124976
:104AE0000095FCF775FD0123104A314628460094D5
:104AF0000AF0DEFEA0420EDAFCF7C0FD0368094AA8
:104B000003200B49CDE900632B46FCF761FD4FF014
:104B1000FF3002B070BD2046FBE700BF4265500089
:104B200082655000D4BF5100476550008C6550002D
:104B30009365500070B5054601200E4600F000F95F
:104B4000044670B100F0C4F9204600F0C9F93346BC
:104B500001212A46204600F03FFCE3690146204639
:104B600098476FF00B0070BD00F52670704770B568
:104B700004460E461546B2B1D0F888323BB1D0F8A3
:104B80008C0207F050FBD4F8880207F04CFBD4F8F5
:104B900084322B60D4F880326B60D4F88C32AB60F6
:104BA000D4F88832EB600023C4F88062C4F88832FD
:104BB00070BD38B50446D0F8885211F039F800F5C8
:104BC0009C70854209D111F033F800F59C7007F014
:104BD0002AFB0123C4F8803238BDD4F8880268B1BA
:104BE00007F021FBD4F8880207F084F94FF0FF3377
:104BF000C4E9A0330023C4E9A233EDE7D4F880026E
:104C00000028F3DB0128F1D009F07FFDEEE738B58D
:104C10000D460446FFF7CDFF2B68C4F884326B685D
:104C2000C4F88032AB68C4F88C32EB68C4F88832C0
:104C300038BD000010B5D0F8883204460BB1002012
:104C400010BD0949D0F8800207F018F9C4F88802AD
:104C500030B1D4F88032C4F88C02C4F88432EEE764
:104C60004FF0FF30ECE700BF8E6A50000EB417B56E
:104C70000446FFF7DFFF58B906AA0599D4F88C025D
:104C8000019207F0D3FB03B0BDE8104003B07047BA
:104C90004FF0FF30F7E70EB417B50446FFF7CAFF31
:104CA00058B906AA0599D4F88802019207F0BEFB0C
:104CB00003B0BDE8104003B070474FF0FF30F7E796
:104CC00073B505460C461646FFF7B4FFD8B9204623
:104CD000D5F888323246012107F022FA041E0BDA99
:104CE000D5F88062FCF7CAFC03680320074A0093EA
:104CF00033460749FCF76CFCD5F8880207F093FAB5
:104D0000204602B070BD4FF0FF34F9E7E1BF51001B
:104D1000BD65500010B50446FFF74BFFD4F8900274
:104D200008B105F06DFD2046BDE8104005F068BDF6
:104D30000C4608B5FFF7EEFF2046FCF70FFC00001D
:104D400038B505464FF4467005F07AFD044628B3A1
:104D5000134B144A0360144B42614360134B144AD3
:104D6000C360144B82618360134B80F87C520361F3
:104D7000124BC361022380F82232C0F8843210F053
:104D800057FF012300F51A70C4F88032C4F88C0272
:104D900010F04EFF00F59C70C4F88802204638BD24
:104DA000154D40006F4B4000C14C4000974C4000F7
:104DB0000F4C40006D4C4000694B4000314D4000AD
:104DC0002DE9F74F0D461146044600F0BBF80646A4
:104DD000F8B12369204698470746002868D036492D
:104DE0003046D4F8248207F060F8C4F82402B0B941
:104DF000A768FCF743FC006807F074FD2F4B2A46B8
:104E00002F4900902046B847304600F0BFF8C4F85C
:104E100024824FF0FF35284603B0BDE8F08F4FF0F5
:104E2000FF35DFF8A890DFF898A010F001FF00F53B
:104E30009C7007F0F8F9D4F8240207F0E9F8002391
:104E4000C4F828029842A4F82C320CDAD4F808B03E
:104E5000FCF714FC006807F045FD1A4B00904A4629
:104E600051462046D847D4F824228021384607F0FE
:104E7000F7F898B194F822329A0704D4E3683A46D6
:104E80001149204698473946204601F075FC0546F1
:104E90000028CAD094F82232DB07C6D4D4F8240202
:104EA00007F028F8C4F82482304600F06FF8B2E723
:104EB0004FF0FF35F8E700BF9E695000E8655000ED
:104EC00053C05100EE65500015AB5000F465500022
:104ED000014A0249FFF774BFF965500008665000A7
:104EE00038B50446FDF712FD084B01221D781A70F3
:104EF000FDF71CFD45B9064A20460649FFF760FF4D
:104F0000022384F8223238BD0020FCE7F0A94020BB
:104F1000106650005DA5500008B50249C368984767
:104F2000002008BD1891510008B50448FDF7B8FBF2
:104F3000034B002808BF184608BD00BFFBBF510047
:104F4000F2BF510070B506460C4609B10B7823B983
:104F50000C48BDE8704007F0B7BC2F2B01D10846C4
:104F6000F7E7FFF7E1FF08490546204607F059FD3E
:104F700008B92846EDE7224629463046BDE870408C
:104F800000F018BCF2BF5100B922510008B105F081
:104F900037BC704701292DE9F341064617464EDD1F
:104FA00055682949284607F03CFD0446002847D0AB
:104FB0002649284607F035FD044650BB2448FDF736
:104FC0006FFB244B002808BF184607F07DFC804685
:104FD00007F0FEFD054670B13F68B568FCF74EFB73
:104FE000006807F07FFC1C4B00903A461B49304696
:104FF000A8474FF0FF35B8F1000F02D0404605F04A
:10500000FFFB14B12046FFF7C1FF284602B0BDE800
:10501000F0811349284607F004FD044638B9FFF72C
:1050200083FF07F051FC804605F0A6FFD0E7294634
:105030003046FFF787FF4FF000080446C8E700241A
:10504000A0460448C4E700BF2066500085695000B0
:10505000F4BF5100F2BF51002266500053C051000E
:10506000176551002DE9F04F012387B007469046A0
:105070004FF0000A5F4C029101932246414602988C
:1050800007F078FD431C10D107F081FDD0F80090A7
:105090004FF05C0B08EB8908029B99451FDB019BD5
:1050A000002B40F0A18000200DE065280ED06E2876
:1050B0000FD0452810D0BB683846D8F800204E499C
:1050C00098474FF0FF3007B0BDE8F08F4FF0010A6E
:1050D000D3E700230193D0E74FF0000ACDE707F0B4
:1050E00056FD03684B4503D0FB6838464349984753
:1050F000BAF1000F63D0D8F800502C462B780BB9CA
:1051000023705CE05C2B04D02E4604F8013B751C38
:10511000F4E76B786E1C0D2B0AD80D2B0ED8DFE848
:1051200003F04A0D0D0D0D0D0D57590D5D615B5FBF
:105130005C2B35D0782B08D0302B16D0234603F8C3
:1051400002BB6A7862701C46E1E7033500230496CF
:1051500016F8012F05931046039205F094FE059B67
:10516000DDE90321A0B90E461AE004350021737869
:1051700032460136303BD8B2082803D9164604F827
:10518000011BC4E7AE4203EBC101F0D13246F5E7A3
:10519000A2F130011B01092905D80B44AE42D6D13A
:1051A00004F8013BB3E71046039305F07AFE039B36
:1051B00057380344F2E7002384F800B06370FB68BB
:1051C000384658F8042B09F101090D49984763E75F
:1051D0000723E5E70823E3E70C23E1E70A23DFE7FA
:1051E0000D23DDE70B23DBE7FB68384605499847CD
:1051F00059E700BF2866500000C15100BC71500043
:1052000015AB5000304651002DE9FF474E4B164676
:105210000DF10C0801291A8804469B780D46ADF85B
:105220000C2088F802300DD10022484900F094FB90
:105230000546E3682046ED1745499847284604B0DF
:10524000BDE8F087022901D0042968D17768384683
:1052500007F00EFC01280FD83668A568FCF70EFA97
:10526000006807F03FFB3B4B32463B49009020462D
:10527000A8476FF01505E1E797F80090B9F12D0FF9
:105280000ED0B9F12B0F0BD03668A568FCF7F6F9F4
:10529000006807F027FB2F4B324630490090E6E7C5
:1052A0004FF0010A17F8011F11F0DF0F22D102237E
:1052B000033D012D46D801339D0056F8230000F030
:1052C0005BFA0746043D7059FDF7EAF948BB71598E
:1052D0003A46204600F0E2FA051EAFDA6842A768B7
:1052E000366807F0FFFA1E4B009032461D492046F3
:1052F000B847A3E7404607F08AFB0028C4D0A0EBDC
:10530000080394F82222B9F12B0F0AFA03F30ABF1B
:10531000134322EA0303DBB284F82232C2E70123FB
:10532000C6E7705901223946FEF7C4F9051E85DA31
:10533000A7683668FCF7A2F9006807F0D3FA0A4BB1
:105340000090D2E7002579E73B285100194F400033
:10535000304651005425510034C1510000C1510064
:105360002C66500053C0510046665000F7B5516896
:105370000446154600F0CCFA002825DA831C23D019
:105380002F684042A66807F0ADFA104B3A460090ED
:1053900020460F49B0474FF0FF366868FEF7F8F92E
:1053A00000280EDA2D68A668FCF768F9006807F097
:1053B00099FA084B00902A4605492046B0474FF01D
:1053C000FF36304603B0F0BD0026E6E737665000F2
:1053D00053C0510044665000F7B5044617461D46B9
:1053E00041B1D0F88812374806F0E4FFD4F88802BB
:1053F00006F019FF012F29DC334F04F52676D4F887
:105400008812384606F0D6FFD4F8880206F00BFF63
:1054100010F00EFC054610F00BFC802100F59C738B
:1054200005F10802304600F0B0FA013040D1D4F85E
:105430008C42FCF723F9006807F054FA234B0090E4
:105440002046234A234906F0E4FF0AE06E68224919
:10545000304607F0E6FA30B9E36820462A681F496B
:105460009847002013E01E49304607F0DAFA80B969
:10547000022F06D0A968204603B0BDE8F04001F035
:105480007BB9A3682A68174920469847012003B0D2
:10549000F0BD337829682D2B03D10A46A368124941
:1054A000F2E73246204603B0BDE8F040FFF788BC83
:1054B0003146204601F060F9D4F8880206F0B3FEC8
:1054C0009DE700BF78C1510072C151007B6650005A
:1054D0008466500053C051004D6650005066500025
:1054E0007866500034C151005BC151002DE9F74F7F
:1054F00004460D4610460121164609F071FB071EB1
:105500001DDA05223F49304607F006FA28B9A76898
:1055100033462A463C492046B847A668FCF7AEF811
:10552000006807F0DFF9394B00904FF0FF392A4649
:1055300037492046B047484603B0BDE8F08F4FF4E6
:10554000007005F065F9064658B9384609F0DDF8EF
:10555000A668FCF793F8006807F0C4F92D4B00909B
:10556000E3E74FF00009DFF8B4A021E007F0BAF953
:10557000294B00902A4626492046C0472CE02DD0D2
:105580004FF000086368ABEB080206EB0801204609
:105590009847002832DAFCF771F80068D4F80880E0
:1055A000042822D12A4651462046C0474FF0FF39F1
:1055B0004FF400723146384609F04CFBB0F1000B55
:1055C000DDDAFCF75BF80068D4F808800428CDD158
:1055D0002A4612492046C0474FF0FF39384609F0A5
:1055E00094F8304605F00CF9A5E707F07BF90C4B71
:1055F00000902A4606492046C047D7E78044C34565
:10560000C0DCD5E79066500096665000E965500012
:1056100053C05100C7665000A6A5500002C05100FB
:105620006CD950002DE9F74F0546884610460121F8
:105630001F4609F0D5FA061E11DAAC684FF0FF3AA2
:10564000FCF71CF8006807F04DF91D4B009042462E
:105650001C492846A047504603B0BDE8F08F0C9B7C
:105660000024B94603F1FF3B3C705A464946304698
:1056700009F0F0FAB0F1000A16DAFBF7FFFF036851
:10568000042B19D0AC68FBF7F9FF006807F02AF982
:105690000D4B009042460B492846A0474FF0FF3A79
:1056A000304609F032F8D6E7FAD054444FF0000300
:1056B000D144ABEB0A0B3B550C9B002BD5D1EDE74E
:1056C000E965500053C05100A6A550002DE9F341F3
:1056D000044610460F461546984605F0E8FB064678
:1056E000E8B905221749284607F016F928B9A6682F
:1056F0002B463A4614492046B047A568FBF7BEFF43
:10570000006807F0EFF8009020464FF0FF340F4B91
:105710003A460F49A847204602B0BDE8F08130461E
:1057200005F0F3FB024658B1089B29462046C047C6
:105730000028F4DA4FF0FF34304605F0D3FBEAE7F7
:105740000446F9E79066500096665000CE66500019
:1057500053C0510010B5044607F08AF90021231800
:105760001A1B013A002A03DD13F8012C2F2A00D05E
:1057700010BD03F8011DF3E7F8B50446207825466F
:105780002646013468B92846002707F071F92C181D
:10579000B44204D014F8010C05F06BFB30B9284674
:1057A000F8BD05F066FB0028E8D1ECE704F8017DC0
:1057B000EEE70000F7B50D460446104916462846A8
:1057C00004F1200707F02DF978B933460C4A4FF45D
:1057D0000071384605F09DFD0023384684F82031DD
:1057E00003B0BDE8F04007F06FB82B46054A4FF410
:1057F00000713846009605F08CFDEDE7C0E95000D9
:10580000CA645000C864500070B5D0E9A4450E4683
:105810002544AC4212D2701E611E10F8012F11F8FF
:10582000013F9A42F9D01AB93D2B01D1204670BDF3
:10583000204607F01DF901300444EAE70024F5E7AB
:1058400070B5D0E9A43605460C468B421E4416D8E6
:105850008E4214D9084607F00BF90130631E044448
:10586000321B002A06DCD5F894321B1A0020C5F83A
:10587000943270BD14F8012B03F8012FF0E74FF0BC
:10588000FF30F6E708B5FFF7BFFF034618B13D212B
:1058900007F0BDF8431C184608BD0000F8B5D0F865
:1058A000903205460E46174633B1FFF7ADFF01466D
:1058B00010B12846FFF7C4FF304607F0D9F8044678
:1058C000384607F0D5F80444D5F890020234B0B158
:1058D000D5F894321C44214604F0AAFF024610B9C0
:1058E0006FF00B00F8BDD5F8943218443B460749D9
:1058F000C5E9A424324605F0E8FC0020F2E7204682
:1059000004F086FF0028EBD00246EFE71565500053
:1059100010B5044698B1FFF777FF014678B12046ED
:10592000FFF78EFFD4E9A40100290CDC20B104F0BC
:1059300067FF0023C4F890320023C4F89432FCF7C8
:10594000F5FF002010BD04F073FF10B1C4F8900201
:10595000F5E76FF00B00F5E72DE9F041D0E9A4463B
:1059600005460F4690462644B44202D30020BDE8C7
:10597000F081224641462846B8470028F7D1204604
:1059800007F076F801300444EEE75B68526800F0F7
:105990002FB8006909F060BC13B504468DF80710F4
:1059A00001220DF10701206909F056FC002802DBF5
:1059B000F6D002B010BDFBF761FE0368042BF7E7D9
:1059C00013B5044601220DF10701E06809F042F920
:1059D000002809D003DB9DF8070002B010BDFBF7DB
:1059E0004DFE0368042BEDD04FF0FF30F5E70000CB
:1059F00010B586B0074C0492074A01940292074AF8
:105A0000059303920A46014601A800F009F806B082
:105A100010BD00BFC1594000995940009359400042
:105A2000012A2DE9F04706460F46914604DC002482
:105A30000C702046BDE8F0870025836803222C49BE
:105A400098474FF00008336830469847431C044697
:105A50000BD1002DEDDD00232C467B55E9E74FF0FF
:105A60000108F0E74546D046EDE7B8F1000F09D050
:105A70005B28E6D1B8F1020818BF4FF001084FEAE1
:105A80004808E0E71B28EAD012DC0A2812D00D28CB
:105A900010D0082817D1002DD5DD736830460821B5
:105AA000013D9847B3680322114930469847CAE739
:105AB0007F28EFE76C1C0A210023304679553B55BF
:105AC00073689847B5E7E0B205F0CAF98246002846
:105AD000B9D17C5505F1010802357368214630467D
